:1000000000200020710F0000B90F0000BB0F00009E
:1000100000000000000000000000000000000000E0
:10002000000000000000000000000000BD0F000004
:100030000000000000000000BF0F0000C10F000022
:10004000C30F0000C30F0000C5040000C30F000071
:10005000C30F000000000000D90C0000C30F000017
:10006000C30F0000C30F0000C30F0000C30F000048
:10007000C30F0000C30F0000C30F0000C30F000038
:10008000C30F0000C30F0000C30F0000C30F000028
:10009000C30F0000C30F0000C30F0000C30F000018
:1000A000C30F0000C30F00000000000000000000AC
:1000B0000000000000000000000000000000000040
:1000C000164B002B00D1144B9D46402292029A1AE7
:1000D000924600218B460F461348144A121A00F02C
:1000E00067F80F4B002B00D098470E4B002B00D029
:1000F00098470020002104000D000D48002802D080
:100100000C4800E000BF00F02DF82000290000F0AE
:10011000B5F800F011F8C0460000080000200020EB
:10012000000000000000000068000020E401002042
:100130000000000000000000084B10B5041C002B5C
:1001400002D0002100E000BF054B1868836A002B35
:1001500000D09847201C00F033F8C0460000000093
:10016000601F00000E4B70B500251E1C0D4CE41ADC
:10017000A410A54204D0AB00F35898470135F8E726
:1001800001F0E0FE084B00251E1C084CE41AA410E8
:10019000A54204D0AB00F35898470135F8E770BD8D
:1001A000680000206800002068000020680000202F
:1001B000031C8218934202D019700133FAE770478A
:1001C000FEE7C0461F4B1B78012B00D070471E4B2B
:1001D0001B681B07FAD1F0221C4B1B68134018D177
:1001E0001B4B1B6813421AD0174B1B681B07EDD122
:1001F000F022164B1B681340402BE7D1144B1B68B1
:100200001342E3D1C12380220121DB00D205D1506A
:10021000DCE7102B0FD10E4B1B681342E8D10D4ABF
:100220000D4B1A6080220D4B12021A60054B1B7891
:10023000012BD9D0CAE7302BDAD1054B1B6813420A
:10024000D6D1ECE7E00F00F0E40F00F0E80F00F08B
:10025000EC0F00F0DFFF07C004050040186C004001
:1002600008B50378022B02D0012B00D008BD4068EE
:100270000021002200F068F8F8E7C04670B5F020D1
:10028000A0250023012103248AB04004ED05013399
:10029000202B0BD0021C1A411142F8D01A1CC1327B
:1002A000FF32920001335451202BF3D1A023F021CF
:1002B000A122DB054904D200995000221B4903A862
:1002C0005A50011C1A4B70CB70C10A236B441A8020
:1002D000184A06AC069201226260174A211CA260ED
:1002E00080225200E2600093144A032300F07CF95C
:1002F000002815D1124800F065FE2025201C00F0D2
:10030000CBFA0028FAD1207800F0CEFA0028FAD1F2
:100310002378AB43512BF1D10A4800F053FEFEE79E
:100320000021002200F010F8E4E7C0460C050000B0
:10033000641F0000680000206C00002061020000C3
:10034000701F0000781F0000BFF34F8F024A034B5D
:10035000DA60BFF34F8FFEE70400FA0500ED00E01E
:1003600010B500290DD00923002A01D1181C10BD99
:10037000541E2240FAD1826001608480C260002352
:10038000F4E70E23F2E7C046031C10B59C88806892
:10039000DA68121A0420944200D210BDDA680020F4
:1003A00014401A681155DA680132DA60F5E7C04680
:1003B00010B58468C268031C0520944209D098686F
:1003C0009A8802401868825C00200A709A6801329C
:1003D0009A6010BD70B5161C0C1C8D18002A05DD26
:1003E0002078013400F060FAAC42F9D1301C70BDC5
:1003F00010B50C1C201C00F04FFA0528FAD0012083
:1004000010BDC04630B585B000F05CFC00282FD18F
:10041000274C2378DBB2002B05D0032B01D102231C
:10042000237005B030BDA0220421224BD200995088
:10043000012221481A608568C1688D4222D0217846
:10044000022900D09A606B46D91DFFF7B1FF002842
:1004500023D1C2218022174B89005A506946C8799E
:100460001649585002212170C12189005A50D8E7FD
:100470000F4A1378DBB2012B06D0022BD1D1032314
:100480001370CEE72270CCE700211170094AD360C7
:100490005360A023DB00D150C3E70123054A02A823
:1004A000D360237002330370054B1B689847B8E78D
:1004B0008001002000200040700100201C05000089
:1004C0006C010020842210B5414B5200995884B031
:1004D00000292DD18E223E4B52009958002914D16B
:1004E00092223B4B5200995800290CD00021995080
:1004F0009021C9005A5802A85A5002230370354B64
:1005000042601B68984704B010BD0021324C9950DE
:100510002278D2B2002AE3D0022A21D9032ADFD1DD
:10052000023A2170DA605A60A022D2009950D7E7CF
:1005300000219950A322D2009958284CC9B2201CFE
:10054000FFF722FF00282AD1A268E3689B1A012B3B
:10055000C0D1204A02AB18701268181C9047B9E746
:100560001F488168C26891422DD02278022A01D0AA
:1005700001229A606B46D91DFFF71AFF002817D198
:10058000C2218022124B89005A506946C879154908
:10059000585002212170C12189005A50A0E7012240
:1005A00002AB1A700B4A03901268181C904791E72F
:1005B0000123074AD3602370032302A80370054B6D
:1005C0001B6898478CE70122DA602270F4E7C04686
:1005D000002000406C0100208001002084010020E8
:1005E000700100201C050000F0B55F4656464D46E0
:1005F0004446F0B400279A4E89B03770994F3A605C
:100600000722002909D08A880D1C041C0968964815
:100610000193FFF7A5FE021E07D0101C09B03CBCD9
:1006200090469946A246AB46F0BD904BAA89A96870
:10063000181C9846FFF794FE021EEED1A02203215B
:100640006378D205C133FF339B0099502378C133BF
:10065000FF339B0098506178854B864A99502178EA
:10066000854A9950A168854A99506279002A48D0F4
:100670000E21834A99502379022B5FD0012B43D05E
:10068000A02204217A4BD200995000220531FF317B
:100690005A507B4814315A5019580132914319501D
:1006A0000121643849421950083019509A601A6083
:1006B0003270129B1B88002B05D1724A1378591C8B
:1006C0001170129A13800121C222694B4942920093
:1006D0009950A121043A89009950C02304216A4A03
:1006E0005B00D150019BC0209D01FF238000145866
:1006F0001D40664B2D0423401D4315501160002200
:100700008BE75F495A50B6E7A0210420584AC90038
:10071000505000210530FF3011501430115058480E
:10072000115819431150A221E078C9005050A07807
:1007300008395050936013603370BAE700F062F9E3
:10074000002804D100F030F9021E00D065E7002334
:100750009946002304A90B804B468B7001234B70F4
:10076000A0789A4600F056F9021E00D055E7404B9B
:1007700001229B46A22359465242DB00CA50A2786E
:10078000083BCA503E4A8B5851460B4359468B5042
:10079000032305A90B704B464B708B70CB703C4A02
:1007A000E07800F0A1F9051C021E00D035E7E078E2
:1007B000012100F03BFAE07800F084FA3378DBB2F4
:1007C000002807D0012B0DD0022B00D071E70323A6
:1007D00033706EE7002B0ED0032B00D069E70223A5
:1007E000337066E74A4632705A46D3605360A0239E
:1007F000DB00D5505DE7A02304225946DB00CA5038
:10080000524643460A609A68DB689A421AD03378A7
:10081000022B01D052468A6002ABDC1D4046211CEF
:10082000FFF7C6FD002810D1C2218022104B89009D
:100830005A5020781749585002213170C12189003F
:100840005A5036E75346337033E70123084A06A867
:10085000D3603370023303703B68984729E7C04682
:10086000800100206C010020840100207001002024
:10087000002000400C0500001405000024050000C5
:100880006C0500006400002000E100E0FFFF00FFB5
:10089000050400001C05000008B5011C0148FFF715
:1008A00087FD08BD8401002070B51A4D011C84B07D
:1008B000281CFFF769FD184C061C2378DBB2012BBE
:1008C00002D0301C04B070BD2278022A01D0134A35
:1008D00093606B46281CD91DFFF76AFD00280ED1D6
:1008E000C22180220D4B89005A506946C8790C49B3
:1008F000585002212170C12189005A50E1E701239B
:10090000064A02A8D360237002330370054B1B68AC
:100910009847D6E7700100208001002000200040A9
:100920001C0500006C010020F0B5002820DBFF272B
:100930001B4B03229C463B1C8408C026C0B20240CD
:10094000D2009340A4006444B600A5599D438B0196
:100950003B409340191C2943A1511F2318401E3BC3
:100960008340C022181C0E4B520098501860F0BDF6
:10097000FF260C4A03249446321C0F23C0B20440C5
:10098000E400A2400340083B9B089B006344DD69F0
:1009900095438A013240A240111C2943D961DCE70A
:1009A00000E100E000ED00E010B5144C08202378D1
:1009B000002B00D010BD3C22013BA354E361C332A5
:1009C00023626362A362E36223636363A36363607E
:1009D000A360E36023616361A36102383E330121B8
:1009E000E254FFF7A1FF8021C123054A9B000906BD
:1009F000D150012300202370DCE7C0469401002081
:100A000000600040024B1878431E9841C0B2704706
:100A100094010020F0B51C252F4B021C1C186557B3
:100A20000820013500D0F0BD8878002834D05868FF
:100A300001304BD0986801304AD0D868013049D095
:100A40001C69042003260134EDD198180677002094
:100A5000A227B6009B195860204BFF00F318DE59FF
:100A60001F4D0C78354080264878DD51DD597603DE
:100A70000005AC4630402504C0262C1CB60234408C
:100A80002043F824051C640110020440281C204364
:100A900064462043D85101E0FE232377131CA02491
:100AA0000320C133FF339B00E40518514B78012B21
:100AB00005D0012090400B4BE0500020B3E793405D
:100AC0001A1CA123DB00E2500020ACE70026BCE7A3
:100AD0000126BAE70226B8E7940100200060004032
:100AE000FFE0ECFF0C050000F0B5474680B44C4B2E
:100AF00008241D182E7F7F2E03D8201C04BC90468E
:100B0000F0BDCC78A446002C2BD05C6801347DD09D
:100B100004240026A046741CA5005F197F680137D5
:100B200028D0B41CA0451AD9A5005F197F680137E9
:100B300020D0F41CA04512D9A5005F197F680137A9
:100B400018D0341D44450AD2A5005F197F680137CB
:100B500010D00536B04502D99C69013408D0042470
:100B6000CBE75C69013455D006240426A046D2E7C1
:100B700005241425E6B21F185D193E776A606246A7
:100B8000002A02D11C19343420718A78002A15D128
:100B9000021CA0254C78C132FF32A4009200ED0562
:100BA0005451CA78002A15D176B29B190A78343389
:100BB000197992010A431A7100249EE7A024E405E2
:100BC000A446E025022782006244ED005459BC434C
:100BD0005451E6E7A22476B2124BB600F318E400B3
:100BE0000A781D591049000229401951F82149017C
:100BF0000840061CC0211004021C301C89021D592B
:100C00000A40104328431851002476E700262E7727
:100C10005A60BAE704242C77261C5A61B2E7C04612
:100C20009401002000600040FFE0FCFF30B5224B43
:100C30001A18147F62B2032A18DD9B1834331B790B
:100C40009B09032B2CD0012B33D0C025AD02A02350
:100C5000DB059C46E02380006044DB00C458174954
:100C60002140C150C2582A43C25030BD032CFCD889
:100C7000134BA2259C46012390006044ED0044598B
:100C80001C434451101C644600254030800080B253
:100C900005510029E9D09340C1229200A350E4E716
:100CA000A223A022DB00D205D258012383401A429E
:100CB000CBD18025AD02CAE794010020FFFFFCFFE5
:100CC00000600040A223A022DB00D205D358C3401D
:100CD000181C012318407047F8B54F464646C0B46B
:100CE000994A00241368012B00D176E0974B1A68CB
:100CF000012A00D17FE0964B1A68012A00D18AE0D0
:100D0000944B1A68012A00D195E0934B00251A688C
:100D1000012A00D1A0E023070BD0E30700D5A5E00E
:100D2000A30700D5CDE0630700D5AFE0230700D5CA
:100D3000BBE0002C03DB0CBC90469946F8BD3C237D
:100D4000864CE15C8433081C984323181B7F5BB2FC
:100D5000032B1ADD9B00E3185E68002E15D0A0223D
:100D6000D205944683009C44E0236246DB00D358BE
:100D70000122C0278240BF023B4089091B0C15425B
:100D800000D0BEE0032B00D1C2E03D23E15C833301
:100D9000081C984323181B7F5BB2032BCBDD9B0001
:100DA000E4186668002EC6D0A0230124DB059C460B
:100DB000E023C027844082006244DB00D358BF0296
:100DC0003B4089091B0C254200D089E0032BB2D19E
:100DD000032900D1B4E0B047ADE7C12160488900E4
:100DE00041580B4200D181E7584B14601A68013416
:100DF000012A00D07FE7C122594992008958022276
:100E00000A4200D177E700211960514B14431A6858
:100E1000012A00D074E7C122514992008958042266
:100E20000A4200D16CE7002119604A4B14431A684A
:100E3000012A00D069E7C122494992008958082255
:100E40000A4200D161E700211960434B14431A683C
:100E50000025012A00D05EE71D6080231B061C438D
:100E6000A022A223D205DB00D55854E7A2233C4A96
:100E7000DB00D058D158394BC00489035B68C00EE1
:100E8000890F9847A30700D44DE71AE0A323344AFB
:100E9000DB00D058D158314BC0048903DB68C00E49
:100EA000890F9847230700D443E72D4A2D4BD0588C
:100EB000D1582A4BC0048903C00E890F1B6998477B
:100EC00037E7294B264AD058D158244BC004890310
:100ED0009B68C00E890F9847630700D426E7D5E7C3
:100EE000022B00D027E7032900D074E7E023DB00C2
:100EF000D5581E4C2C40D450D4582743D750B04717
:100F000019E7022B00D040E7032907D0B0473CE7A0
:100F10000329FBD180239B02994600E0B946E023D8
:100F20006246DB00D25890464746104A3A40674630
:100F3000FA50FA584F4617436246D750B04724E755
:100F40008027BF02D2E7C046006100400461004034
:100F5000086100400C6100407C6100409401002069
:100F6000006000401C05000014050000FFFFFCFFAE
:100F700003210A4802680A430260094802680A43DA
:100F800002600849084A094B9B1A03DD043BC85814
:100F9000D050FBDC06488047064800472405004047
:100FA00054050040202000000000002068000020C0
:100FB000C5010000C1000000FEE7FEE7FEE7FEE716
:100FC000FEE7FEE70FB40B4B13B51C68002C05D0F1
:100FD000A369002B02D1201C00F050F805AB201CA7
:100FE000A168049A019300F05BF916BC08BC04B038
:100FF0001847C0466000002008B5024900F0AEF86E
:1010000008BDC046811B0000002310B5041C03600E
:101010004360836081814366C28103614361836170
:10102000191C08225C30FFF7C3F8054B2462636289
:10103000044BA362044BE362044B236310BDC04620
:10104000F117000019180000511800007D18000069
:1010500070B568254B1E5D430E1C291C743100F0D1
:101060009FF8041E08D000212A1C016046600C3045
:10107000A0606832FFF79CF8201C70BD836913B52F
:10108000002B28D18364C3640365134B134A1B6888
:1010900082620193984201D101238361041C00F014
:1010A0001FF86060201C00F01BF8A060201C00F0FE
:1010B00017F80421E06000226068FFF7A5FFA06830
:1010C00009210122FFF7A0FFE06812210222FFF7A9
:1010D0009BFF0123A36113BD601F0000F90F0000F7
:1010E000F8B51D4B061C1D68AB69002B02D1281CEE
:1010F000FFF7C4FF4835AC686B68013B05D40C2290
:10110000A75E002F10D06834F7E72B68002B06D1BC
:10111000301C0421FFF79CFF2860002801D02D68B7
:10112000E9E70C23336016E00123201C5B42E381D6
:101130000233A38167662760A760676027616761E4
:10114000A7615C30391C0822FFF732F8201C676366
:10115000A763A764E764F8BD601F0000F7B5041C2F
:10116000071C002601914834002C16D06368A5683E
:101170000093009B013B00930DD4AB89012B08D950
:101180000E22AB5E013304D0381C291C019B98470A
:1011900006436835EDE72468E6E7301CFEBD000035
:1011A000032370B5CC1C9C430834051C0C2C01D2C5
:1011B0000C2405E0002C03DA0C2300202B6042E015
:1011C0008C42F9D3204A1368101C191C002913D033
:1011D0000A68121B0DD40B2A02D90A608B181FE073
:1011E0008B4202D15A6802601BE04A685A600B1CAD
:1011F00017E00B1C4968E9E7144E3368002B03D154
:10120000281C00F0E3FA3060281C211C00F0DEFAF4
:10121000031C421CD0D00322C61C964386420AD12E
:101220001C60181C07210B301A1D8843821A0AD033
:101230005142995007E0311A281C00F0C7FA431CAC
:10124000BAD0331CECE770BDD8010020D4010020D7
:10125000936810B5013B9360002B05DA9469A342B3
:1012600008DBCBB20A2B05D01368581C106019702C
:10127000C8B201E000F008FB10BDF8B5061C0F1C59
:10128000141CD518AC4208D02178301C3A1CFFF74A
:10129000DFFF0134431CF5D100E00020F8BD000061
:1012A000F0B59FB0061C0F1C02920593002804D0D5
:1012B0008369002B01D1FFF7E1FE794B9F4201D1F9
:1012C000776808E0774B9F4201D1B76803E0764B1F
:1012D0009F4200D1F768BB891B070AD53B69002BE9
:1012E00007D0002306AD6B6120336B761033AB76ED
:1012F0003DE0301C391C00F033FB0028F1D0012008
:101300004042CAE0059A111D12680591002A7EDB51
:101310000992013423782E2B00D189E0217863488B
:10132000032200F0C5FC002808D0604B0134C01A2D
:1013300040238340181C2B68184328602178631CC5
:101340005B4806220293297600F0B2FC002800D107
:1013500091E0584B002B00D084E00722059B073317
:101360009343083305936B69039A9B186B61029C46
:101370002378002B04D1029BE31A049311D003E0DD
:10138000252BF8D00134F3E7049B301C391C029A5A
:10139000FFF773FF431C7BD06A69049B9446634448
:1013A0006B612378002B73D00122002352426A60C4
:1013B00002A95432521801342B60EB60AB601370F9
:1013C000AB6521783C48052200F072FC002809D06A
:1013D000394B0134C01A01238340181C2B68184371
:1013E0002860EEE72B68DA0604D55322202102A8F4
:1013F000121811701A0704D553222B2102A81218B3
:10140000117022782A2A00D17CE7099B05E052421C
:10141000EA60022213432B607BE72278303A092AE4
:1014200004D80A214B4301349B18F6E7099371E76E
:1014300063782A2B09D1059B02341A1D1B6805927B
:10144000002B0DDA01235B420AE0002301342278ED
:10145000303A092A04D80A214B4301349B18F6E795
:1014600007935BE705AB0093301C291C3A1C134B18
:1014700000E000BF07E005AB0093301C291C3A1CBC
:101480000E4B00F08BF80390039B013300D06AE70A
:10149000BB895B0600D532E70B981FB0F0BDC04694
:1014A000841F0000A41F0000C41F0000EA1F0000EA
:1014B000EE1F000000000000E41F00007B1200008F
:1014C000F7B5171C01930A698B6800900C1C9342B6
:1014D00000DA131C221C3B6043321278002A01D030
:1014E00001333B6023689B0602D53B6802333B60B7
:1014F000062523681D401ED0231C43331B785A1E2B
:101500009341226892061CD53020E1184031C87002
:10151000211C5A1C45310978A21840320233D1707F
:101520000FE0221C0123009801991932089EB04750
:10153000431C0ED00135E3683A689B1A9D42F0DBEC
:10154000DAE7221C009801994332089DA847431C02
:1015500002D10120404220E006232068E1683A6879
:1015600003400025042B03D18D1AEB43DB171D40EC
:10157000A3682269934201DD9B1AED180027AF4250
:101580000ADA221C0123009801991A32089EB047FA
:10159000431CDED00137F2E70020FEBDF0B58BB072
:1015A00006920A1C43320793059004920A7E0C1C93
:1015B000109B6E2A00D1A8E011D8632A22D009D846
:1015C000002A00D1B2E0582A00D0C2E045310A70AA
:1015D0007C4A4FE0642A1DD0692A1BD0B9E0732AE7
:1015E00000D1A7E009D86F2A29D0702A00D0B0E036
:1015F000202209680A43226037E0752A1FD0782A22
:1016000033D0A6E00E1C1A684236111D196013680B
:101610003370A1E021681A68080606D4490604D58B
:10162000111D19600023D55E02E0111D19601568B7
:10163000002D3BDA2D23049A6D42137036E02168A9
:101640001A68080606D4490604D51568111D1960E4
:10165000ADB202E0111D196015685A4B227E03934A
:101660000A276F2A1DD108271BE0221C782145324A
:101670001170554A19680392081D226818600D6898
:10168000100602D4500600D5ADB2D30702D52023F0
:101690001A4322601027002D03D1202322689A4389
:1016A0002260231C002243331A7002E00A27454BB4
:1016B00003936368A360002B03DB0422216891433A
:1016C0002160002D02D1049E002B0ED0049E281C08
:1016D000391C00F0FDFB039B013E5B5C281C337052
:1016E000391C00F06FFB051EF1D1082F09D12368CA
:1016F000DB0706D563682269934202DC3023013E92
:101700003370049B9B1B23612BE009681A68080651
:1017100007D4490605D5111D19601368A28A1A80DD
:1017200004E0111D1960136862691A600023049EA9
:10173000236116E01A68111D196016680021301C1B
:10174000626800F0B5FA002801D0801B6060636811
:1017500003E0261C42363270012323610023049AE1
:101760001370079B05980093211C069B09AAFFF79D
:10177000A7FE431C02D10120404221E023690598C5
:101780000699321C079DA847431CF4D023689B0789
:1017900005D4099BE068984212DA181C10E0002575
:1017A000E368099A9B1A9D42F3DA221C01230598EB
:1017B00006991932079EB047431CDCD00135EFE78C
:1017C0000BB0F0BDF51F00000620000038B5002367
:1017D000064C051C081C236000F0A6FB431C03D12B
:1017E0002368002B00D02B6038BDC046E0010020EC
:1017F00038B50C1C0E25495F00F0ACFA002803DB5D
:10180000636D1B18636503E0A289024B1340A3813B
:1018100038BDC046FFEFFFFFF8B51E1C8B89051CC5
:101820000C1C171CDB0505D50E23C95E0022022304
:1018300000F0D2F9A289054B281C1340A3813A1C61
:101840000E23E15E331C00F077F8F8BDFFEFFFFFD9
:1018500038B50C1C0E25495F00F0BEF9A389421C67
:1018600003D1054A1340A38104E0802252011343AF
:10187000A381606538BDC046FFEFFFFF08B50E23AA
:10188000C95E00F0E1F808BD70B5051C0E1C141C03
:10189000002804D08369002B01D1FFF7EFFB234B15
:1018A0009C4201D16C6808E0214B9C4201D1AC689C
:1018B00003E0204B9C4200D1EC68A369A360A3899C
:1018C0001B070AD52369002B07D023682269F6B2CB
:1018D000981A636998420FDB08E0281C211C00F06D
:1018E0003FF80028F1D0012040421DE0281C211CB7
:1018F00000F046F90028F6D1A3680130013BA3604F
:1019000023685A1C22601E706369984205D0A3891F
:10191000301CDB0708D50A2E06D1281C211C00F03C
:101920002FF90028DFD1301C70BDC046841F000095
:10193000A41F0000C41F000038B5051C0020074C80
:101940002060081C111C1A1CFEF744FD431C03D127
:101950002368002B00D02B6038BDC046E00100207A
:10196000354B70B51D68061C0C1C002D05D0AB69ED
:10197000002B02D1281CFFF781FB304B9C4201D188
:101980006C6808E02E4B9C4201D1AC6803E02D4B03
:101990009C4200D1EC68A3899AB2110723D4D106E6
:1019A00007D409220120326037321343A381404219
:1019B00040E0530713D5616B002908D0231C443342
:1019C000994202D0301C00F07FF900236363242287
:1019D000A3899343A38100236360236923600822C2
:1019E000A3891343A3812369002B0BD1A023A289D0
:1019F0009B00134080229200934203D0301C211C94
:101A000000F0FEF80123A289134005D00023A36053
:101A100063695B42A36103E0910700D46369A3603B
:101A200000202369834205D1130603D540231A43BE
:101A3000A281013870BDC04660000020841F0000F4
:101A4000A41F0000C41F000038B50023064C051C6D
:101A5000081C236000F048FA431C03D12368002BC4
:101A600000D02B6038BDC046E0010020F7B58A8960
:101A7000051C0C1C13075ED44B68002B02DC0B6C9E
:101A8000002B1ADDE76A002F17D000232E682B6089
:101A900080235B011A4001D0626D15E0281C216A89
:101AA0000123B847021C431C0ED12B68002B0BD01E
:101AB0001D2B01D0162B02D12E6000205EE04021AC
:101AC000A3890B43A38159E0A3895B0706D563680B
:101AD000D21A636B002B01D0236CD21A0023281C6E
:101AE000216AE76AB847A389421C06D12A68002AFE
:101AF00003D01D2A01D0162A19D100226260226962
:101B00002260DB0405D5431C02D12B68002B00D1D9
:101B10006065616B2E600029CFD0231C443399424D
:101B200002D0281C00F0D0F80020606326E040229C
:101B30001343A38122E00F69002FBED00B680F6012
:101B4000DB1B01930023920700D14B69A360019B2B
:101B5000002BB2DD281C216A3A1C019BA66AB04703
:101B6000002806DC40220120A38940421343A381C0
:101B700004E0019B3F181B1A0193E8E7FEBD00003B
:101B800038B50B69051C0C1C002B01D100201CE092
:101B9000002804D08369002B01D1FFF76FFA0B4BAB
:101BA0009C4201D16C6808E0094B9C4201D1AC68B1
:101BB00003E0084B9C4200D1EC680C22A35E002B92
:101BC000E4D0281C211CFFF751FF38BD841F000002
:101BD000A41F0000C41F000038B5051C0020074CDE
:101BE0002060081C111C1A1C00F096F9431C03D13C
:101BF0002368002B00D02B6038BDC046E0010020D8
:101C0000F0B58B8991B09B0706D50B1C47330B6051
:101C10000B6101234B6145E00C1C0E23C95E061CC1
:101C2000002904DA8023A5891D4010D10CE001AA07
:101C300000F0A4F80028F5DBF023029D1B021D40F4
:101C4000194BED186B425D418027FF0001E0002534
:101C50004027301C391CFFF7A3FA00280CD1A389B8
:101C60009A051FD402221343A381231C4733236008
:101C700023610123636115E080220C4BB362A389C9
:101C800020601343A38120616761002D0AD00E23D9
:101C9000E15E301C00F084F8002803D00122A38903
:101CA0001343A38111B0F0BD00E0FFFFF90F000066
:101CB000C9B28218904204D003788B4202D001301E
:101CC000F8E700207047000030B500293ED0043905
:101CD0000B68002B00DAC9181D4A1368141C002B6E
:101CE00002D14B60116031E099420DD208680A18A8
:101CF0009A4203D11368C3180B6053684B6021608C
:101D000024E08A4203D8131C5A68002AF9D11D68BE
:101D10005C198C420BD109686918581819609042F7
:101D200014D110685268091819605A600EE08C428C
:101D300002D90C23036009E008680C18944203D10F
:101D400014685268001908604A60596030BDC04686
:101D5000D801002038B5051C0020074C2060081C65
:101D6000111C1A1CFEF744FB431C03D12368002BF3
:101D700000D02B6038BDC046E001002038B50023FC
:101D8000064C051C081C111C236000F0B5F8431C10
:101D900003D12368002B00D02B6038BDE001002068
:101DA00038B50023064C051C081C236000F0ACF875
:101DB000431C03D12368002B00D02B6038BDC046E4
:101DC000E0010020002243088B4274D303098B42B8
:101DD0005FD3030A8B4244D3030B8B4228D3030CFB
:101DE0008B420DD3FF22090212BA030C8B4202D39D
:101DF0001212090265D0030B8B4219D300E0090AC5
:101E0000C30B8B4201D3CB03C01A5241830B8B42CD
:101E100001D38B03C01A5241430B8B4201D34B03B6
:101E2000C01A5241030B8B4201D30B03C01A52411B
:101E3000C30A8B4201D3CB02C01A5241830A8B42A0
:101E400001D38B02C01A5241430A8B4201D34B0289
:101E5000C01A5241030A8B4201D30B02C01A5241ED
:101E6000CDD2C3098B4201D3CB01C01A52418309A1
:101E70008B4201D38B01C01A524143098B4201D3DB
:101E80004B01C01A524103098B4201D30B01C01A06
:101E90005241C3088B4201D3CB00C01A5241830880
:101EA0008B4201D38B00C01A524143088B4201D3AD
:101EB0004B00C01A5241411A00D20146524110460D
:101EC0007047FFE701B5002000F00CF802BDC046E6
:101ED0000029F7D003B5FFF775FF0EBC4243891AFE
:101EE0001847C0467047C04658220120014B404267
:101EF0001A607047E001002058220120014B404247
:101F00001A607047E00100205822024B00201A603E
:101F10007047C046E001002058220120014B40429A
:101F20001A607047E0010020044A1368002B03D0B8
:101F300018181060181C7047014BF9E7DC010020ED
:101F4000E8010020F8B5C046F8BC08BC9E467047C2
:101F5000F8B5C046F8BC08BC9E4670474300000078
:101F6000000000200B09080A0100000000509D003D
:101F70006161616100000000200A0D4578697421EB
:101F80000A0D00000000000000000000000000003A
:101F90000000000000000000000000000000000041
:101FA0000000000000000000000000000000000031
:101FB0000000000000000000000000000000000021
:101FC0000000000000000000000000000000000011
:101FD0000000000000000000000000000000000001
:101FE00000000000232D302B2000686C4C0065663B
:101FF000674546470030313233343536373839415A
:10200000424344454600303132333435363738396F
:08201000616263646566000073
:08201800A8E0FF7F01000000B9
:1020200000000000841F0000A41F0000C41F000067
:1020300000000000000000000000000000000000A0
:102040005C1F000000000000000000000000000015
:102050000000000000000000000000000000000080
:102060000000000000000000000000000000000070
:102070000000000000000000000000000000000060
:08208000000000200100000037
:0400000300000F7179
:00000001FF
