:020000021000EC
:1080000000400020C1970100099801000B98010071
:108010000000000000000000000000000000000060
:108020000000000000000000000000000D980100AA
:1080300000000000000000000F98010011980100EE
:108040001398010013980100139801001398010080
:10805000139801000000000013980100139801001C
:108060001398010013980100139801001398010060
:108070001398010013980100139801001398010050
:1080800013980100298C0100139801001398010036
:108090007182010013980100D1940100139801002E
:1080A0001398010013980100000000000000000078
:1080B00000000000000000000000000000000000C0
:1080C000164B002B00D1144B9D46402292029A1A67
:1080D000924600218B460F461348144A121A00F0AC
:1080E00067F80F4B002B00D098470E4B002B00D0A9
:1080F00098470020002104000D000D48002802D000
:108100000C4800E000BF00F02DF82000290000F02E
:10811000F9FD00F011F8C046000008000040002002
:1081200000000000000000007C20002070240020DF
:108130000000000000000000084B10B5041C002BDC
:1081400002D0002100E000BF054B1868836A002BB5
:1081500000D09847201C00F033F8C0460000000013
:10816000709801000E4B70B500251E1C0D4CE41AD2
:10817000A410A54204D0AB00F35898470135F8E7A6
:1081800001F068FB084B00251E1C084CE41AA410E3
:10819000A54204D0AB00F35898470135F8E770BD0D
:1081A0007C2000207C2000207C2000207C200020DF
:1081B000031C8218934202D019700133FAE770470A
:1081C000FEE7C0463CDF7047A9DF704782DF70479B
:1081D0007FDF704776DF704737DF704736DF7047E5
:1081E00048DF704760DF70477CDF70477ADF704799
:1081F00078DF704773DF704780218023184A890237
:10820000D1508022D221174B520289005A50403956
:108210005A5001222F205A600138C046C046C0463D
:10822000C046C046C046C046C046C046C046C0461E
:10823000C046F1D19A6000230B4A2F201360013809
:10824000C046C046C046C046C046C046C046C046FE
:10825000C046C046C046C046F1D1044A13707047BC
:1082600000E100E000100140002300207C200020FD
:10827000F0B556465F464D464446F0B4BB4BBC4A4B
:108280009A46BC491B688DB00893097813789942C7
:1082900000D12EE20133DBB2022B00D1F6E11370E4
:1082A000B54A9B00944663445B6804929C46089AD6
:1082B00006936244130252461B0A1360012309937A
:1082C000AE49AF4A0B6812681D1C0B930592AD4B6B
:1082D000AD4A1B781068049A01930293127B013B0C
:1082E000DBB20A920027061C0193FF2B38D0059AB7
:1082F000DB0090469844434642461B785278AC4691
:10830000934226D0444664685800A1464446C018AB
:10831000A4780133DBB2E41A651EAC41C0006442AC
:10832000484423400478022C00D1C4E06046032C6A
:108330000CD1441C0AD0C2001018800030180775F8
:10834000006A421CF7D14246086052788446934244
:10835000D8D1019B6546013BDBB20193FF2BC6D10F
:108360006A4628241219049B127807951A73099BF0
:10837000002B00D08CE10B9B5B1B5A1E9341DBB2A0
:10838000059301235B429846049B1B7B03930023C8
:108390009C4643460093029B013BDBB20293FF2BBA
:1083A00000D1F5E0764ADB001268934601929B44C7
:1083B000009B013341D0744B1E68009B9846DC0043
:1083C0004444A4003419236AA568E0680093534626
:1083D0001A686E4FAB1A1B021B0ABB4263D81B18EC
:1083E00063606346A360E36001230D682375023B6D
:1083F00023626B1C00D1A4E0EB005B199B00F31817
:1084000060685F68B84209D898E0D3009B189B0069
:10841000F3185F68874200D399E0151C1A6AC01BE5
:10842000531CF2D1EB005D194346AD007619606034
:1084300022623362009B0133BDD1584602784378F3
:108440009342A8D044685300A0469B188478013218
:10845000DB00D2B243440270944200D182E04A4A27
:108460005D6816681A78012AE8D1EC006419A40046
:108470003419227D002AE1D1A8469D688346A56073
:10848000D868E0601F6927615B69E361039B002B8B
:108490009DD053460025A2601A683C4FAB1A1B02C0
:1084A0001B0ABB429BD9521B1202120A82424BD2B8
:1084B000801A606095E74568E800814640198000B1
:1084C0008346B3445846007D041E0090604600D1A8
:1084D0003CE76246013211D0654500D1C4E06446F4
:1084E000039302E085420FD0041CE20012199200AF
:1084F000B218106A431CF5D16046039B5A461775A3
:1085000042468446527822E7039B0392A54200D15B
:1085100097E02C1C60464C44A40034196568039A0B
:10852000246A1462621CE9D0E20012199200B218A7
:1085300050688446654455600868DFE7381A58601B
:10854000256243460B6033E76346636049E73F1AA1
:108550005F60EB005D194346AD00761960602262F2
:10856000336267E76246027079E7C0460023002065
:10857000FC220020FD2200207C200020F822002088
:1085800068240020F422002060240020FEFF7F00E9
:108590000B68079A934200D16AE05A1C00D1B6E0FA
:1085A0005C4AD9001268CB189B00D3185C685A4803
:1085B0005A4B049DC15853461B682D78CA1A1202A3
:1085C000120A0332002D20D18025D1266D02B6007B
:1085D0008551403E8551C0278026514DB6027F000F
:1085E000EE512E60012505602F200138C046C0469F
:1085F000C046C046C046C046C046C046C046C0464B
:10860000C046C046F1D104980570A24200D2221C97
:10861000A820D2181202130A3F4AC00013503F4844
:108620005B1A12581B02521A1202120A03321B0A58
:108630009A4221D980218023394A89025B00D15096
:108640001AE0141C6246D000604480003018006AB2
:108650000860421C00D061E701222F4DAA605246FB
:108660001760009A0A9259E75C4658460394EEE771
:10867000059A002A00D090E70023049A13730DB0E6
:108680003CBC90469946A246AB46F0BD002306E6A8
:10869000204B0A681B680027994601235B429846D5
:1086A000002344469C466B1C1DD0EB005B199B00CD
:1086B0004B445868069EB04221D8321A0692624650
:1086C0005A6062461E691A753F181A6A002E07D052
:1086D0001C622C1C0898DE6038180002000A9860A2
:1086E000151C6B1CE1D10123A0460A600795059378
:1086F0004AE60023069309930A4B0493E0E5801BA6
:1087000058600123A04607950A6005933CE6FFF7F1
:1087100073FDB1E760240020001001400405000053
:1087200000E100E07C200020BFF34F8F024A034BA2
:10873000DA60BFF34F8FFEE70400FA0500ED00E0BA
:1087400070B5028886B0131C103B9BB2041C422BF0
:108750000ED8B4499B00CB589F46B34B00211888D4
:1087600000220323FFF730FD002800D063E02288B9
:10877000112A00D1A0E000D8F2E0122A08D1A11DF0
:10878000AA48082201F055F800F044FF06B070BD79
:10879000502AFBD1A64BE188DA899142F6D1E28BCF
:1087A000022AF3D11E32A25CD207EDD4A149A24A1B
:1087B00009681268002900D1D6E0A0480478072093
:1087C000A24200D2D2E09B69002BDFD09847DDE7C0
:1087D000811D9B480622543001F02BF8D6E7828891
:1087E000914B1A80211CA288964B16311A808F4813
:1087F000082201F01EF80022934B1A708C4BDB8983
:10880000002BC3D1C0E70122874B52421A800021BE
:1088100019326846FFF7CCFC00236A46694613709C
:108820001372A022684601930A824B82FFF7E2FC92
:10883000002800D19BE7FFF777FF7B4B00211888CA
:10884000824A0433FFF7C4FC002800D18FE7F2E727
:108850007B4D0E30291C0A22223100F0DBFF031C65
:108860005842584158232E1CEB5C1036C0B2DA0730
:108870001BD500281DD0311C9A0737D52A1C2C3255
:108880005B0738D4002368480088FFF79FFC002866
:1088900000D16CE7CFE78379002B00D076E7FFF7B4
:1088A00091FC002800D162E7C5E79A071DD5002892
:1088B00024D100220021E5E70122624B52421A80B6
:1088C0000022614B1A705C4B1A685A4B1B68002BD4
:1088D00016D05A49072009788A4213D3544B9B6912
:1088E000002B00D152E7984750E7002100225B0798
:1088F000C8D50028C6D02B1C4433C4E70021BDE7EF
:108900000820EBE7D10089188900CB5C0130012BEE
:10891000E4D14F4B10215B68DB05DB0D56D14D4B8D
:108920001B6859184B7888785C1C201A451EA84192
:10893000404204400878A04246D05800C318486816
:10894000DB0084466344002B3ED002205A6018703E
:108950004C7080238021404A49035B00D15015E7C9
:10896000102A00D13EE711E708202CE7D00080183C
:108970008000415C0820012900D024E7344902240A
:108980004968C905C80D6BD13248E100006841183B
:108990004E788C78751C2C1B601E844108786442CC
:1089A0002540A8422BD018204C687043A446604450
:1089B000002824D00223426003704D708021264A93
:1089C0004903FE33D150E1E6042087E7103BD8B2DB
:1089D00041B2002915DB89081F48C03189000958B8
:1089E000032003408340D940CBB29B09DBB2002176
:1089F000012B94D00831032B91D008318FE704204C
:108A0000E1E60F23154903408C46083B9B089B0079
:108A10006344596803230340DB00D940CBB29B0970
:108A2000E4E7C04674980100602000205424002030
:108A300018240020602400205C24002064240020EE
:108A40007C20002014240020162400200C24002068
:108A500000ED00E06824002000E100E018ED00E0F7
:108A6000011C1039CCB260B2002815DB8008124C12
:108A7000C0308000005903242140A140C840C1B249
:108A80008909C9B20024012900D17DE703394D428B
:108A90004D410234641B77E70F210848214084468A
:108AA0000839890889006144486803212140C900C8
:108AB000C840C1B28909E4E700E100E018ED00E038
:108AC00008B5FFF731FEC04608B50378002B00D08B
:108AD00008BD044B3B211888FFF77CFB0028F7D02A
:108AE000FFF722FE60200020F0B53F4C85B02388C0
:108AF000029003910920072B01D805B0F0BD002397
:108B00006A46D371394B04265B68DB05DB0D47D120
:108B10006B46D81DFFF762FB022856D0002839D1DA
:108B2000334B344A3448197813780788DBB2C9B21A
:108B30000020BB4201D20133D8B281422CD015783B
:108B400013780021DBB29F4201D90133D9B21170F1
:108B5000012E0BD062B66B46D879FFF73DFB02239E
:108B6000984317D1254B04309D42C6D0244F254B46
:108B70003A68EE0093512088234B4543186802A9B8
:108B80004019082200F055FE3B6800209E1908237A
:108B9000B380B2E7FFF7C8FD012E18D10420ACE77F
:108BA000103BD9B24AB2002A13DB92081749C032EF
:108BB0009200525803210B40DB00DA4013069B0F52
:108BC000DEB2012BA4D10126AAE772B6A8E70B4DAD
:108BD000C0E70F230E4A0B409446083B9B089B00BE
:108BE00063445A680323E6E70624002000ED00E012
:108BF000052400200424002008240020FFFF00009A
:108C00004C230020158C01000024002000E100E02E
:108C100018ED00E008B5082901D0FFF785FD42688E
:108C20000368101C984708BDA021F0B500224746F4
:108C30002A4B490080B45A5004315A5004315A50DA
:108C400004315A504C395A5004315A50244A17684A
:108C50007A1C32D0234A00259B58234A234E14689D
:108C60001C1B234B24029846240A3268FB009446BE
:108C7000DB199B0063445A68A2420ED8A41AAD18AF
:108C80001F6A9A69D96943461B68002B1AD0101CC9
:108C90009847002814D17B1CE7D1164B16491A7847
:108CA0000B789A4211D0154A9B00D3185D60802141
:108CB0008023134A49035B00D15004BC9046F0BDA9
:108CC000FFF732FD081C9047E5E70132D3B2022BD3
:108CD00001D00B70E7E700230B70E4E700100140C0
:108CE000F82200200405000000230020602400205A
:108CF000D8200020FC220020FD2200207C20002023
:108D000000E100E0F0B55F46444656464D46F0B4FB
:108D1000A7B0FFF771FA364B02261A1C3549181C0A
:108D200002C23549354C0E708B4635494C300A60CD
:108D30008846002228215A5414315A54393921774F
:108D400030491A7108604C214E205A5401315A544E
:108D500048391954181C6430186554201A540130CD
:108D60001A5401301954181CDC3098655C201A54D0
:108D700001301A5401301954191C5531FF3119664C
:108D80001A7601238025C021C5275B422362253343
:108D9000E2540133E2541C4B6D0349005D50BF00A7
:108DA000D959A13081433F380143D951A1211D60D8
:108DB000C4251648C9004250AD005F5914493940D6
:108DC000C0273F0239435951211C124B2C31C35843
:108DD0000820A362104B19604821104B1980104BDA
:108DE00010491A6000F0C4FB00281DD0FFF79CFC5E
:108DF000D8200020E98A010064240020D822002025
:108E0000602400206824002000E100E00010014000
:108E1000FF00FFFF04050000502400204C24002028
:108E20003C240020C5940100012399464A46CD4BBD
:108E300016301A7000F09EFB011ED7D108AD082233
:108E4000281CFFF7B5F94A462B78281C93432B7052
:108E5000FFF7C8F90028C9D1C34AC44BC44F1A60F0
:108E6000231C78336367231CD033BB622C23F85454
:108E70000133F854253BFB8502333B8606AB9A460B
:108E80004A46102313435246BA4D1370281C00F073
:108E9000D9FC291C82B25046FFF7A6F98246002869
:108EA000A4D10AAD51460822281CFFF781F9C82237
:108EB000C82392006A8052465B00281C2B80AA803F
:108EC000EB80FFF793F9824600288FD1FFF790F9E6
:108ED000A949042207A800F0ACFC514630221AA888
:108EE000FFF766F9582204AB9B185B211E7006231E
:108EF00004AA52181370682204AB9B184A461A80C1
:108F000007AB1F93534659222B7004AB9B181B7859
:108F10001D2B00DD6AE704AA3A2094461D23604415
:108F20000CA9138400F046FC002800D05EE758220C
:108F300004AB9B181B78022B00D10AE2592204AB28
:108F40009B181B78002B03D09BB2513A1D2B02D9E2
:108F5000082204AB1B8CDBB2591C12AE31705A21B3
:108F600072702A7802329B18DBB204AA2B70521856
:108F70001278002A00D06CE15B2204AB9B181A78AF
:108F8000002A0BD0022101202B78F154591CC9B2C0
:108F90007054D91C0233DBB22970F2541B9B002B96
:108FA0000FD019782B781C2B00DD1FE702220A2036
:108FB000F2545A1CD2B2B054DA1C0233DBB22A701B
:108FC000F154602204AB9B181B88002B00D060E199
:108FD000682204AB9B181B88002B00D064E1702230
:108FE00004AB9B181B88002B00D068E1229A002A52
:108FF00046D02B78991D04938A461F2900D9F5E69F
:109000001088052800D8F1E65C495D4B411889B20B
:109010000393994200D8E9E653889946052B00D876
:10902000E4E6564B02A99C46CC446346CB81CB89EF
:109030009C46039B9C4500D8D8E6524B9C469842E0
:1090400005D04B46634502D0484500D9CEE6052100
:10905000049BF154581C991C1223C9B2C0B233545A
:10906000297010887118049B0870000A4870043336
:109070005288DBB2F3181A70120A5A7053462B70DA
:10908000239B9946002B29D018792B78811C9A1C98
:10909000C9B251181F2900DDA8E60330F054FF20A3
:1090A000591CC9B2705449460433D8B24B46D2B2A7
:1090B0002A700988B2181170090A517028709A88AC
:1090C000002A0BD09968002900D18FE6301800F0F3
:1090D000B0FB4B469A882B78D3182B7058212C2341
:1090E00004AA5218D25C002A00D0F3E000222978AA
:1090F000301C131C00F062FB051E00D076E6291C14
:10910000301C1C22FFF754F8A0239B027360F0234D
:109110001B03B360032333731B4B1C4A73611C4B4B
:109120001295B3619C46131CF581357407CE07C3B5
:1091300007CE07C362461A60164B17481D7000F031
:109140001FFB002800D051E60122144B52421A8026
:10915000134B187043461B68002B00D146E65A4655
:10916000167820E040240020418701004824002098
:10917000D823002084990100809901007FF3FFFF2C
:109180007DF30000FFFF0000C98A010018240020C1
:10919000C18A01006C240020342400201424002003
:1091A000162400200130B04200DB1FE6191C2433D6
:1091B0001A1C243A1578002DF4D10122684B0A704C
:1091C0004D708B613421674B18607B5C0CA81A438F
:1091D000E12313400C221343143293437B54193A76
:1091E0007B185A7009329A70291C0832FEF7E0FF8A
:1091F000202204AB9B181D70083204AB9B181D7015
:10920000A02304AA0CA80D9513865586FEF7F2FF3D
:10921000002800D0EAE52D252C267A5DBB5D9A4218
:1092200032D07B5D7A5D388ED2B2DBB200219042C3
:1092300001D90132D1B2BA6AF88D94465843626FAF
:1092400060449446DB007955634499881B689847CD
:10925000E3E71B2B00D9C9E50CA800F0ADFA002804
:1092600000D0C3E5032219212B78F2545A1CD2B244
:10927000B15404AA118C9A1CD2B2B21811700433E2
:10928000090A51702B7077E6FEF7AAFF0028C4D0B8
:10929000ACE500951CA802210622331C00F072FAEE
:1092A000002800D194E6A1E500951EA8032107221D
:1092B000331C00F067FA002800D190E696E500958F
:1092C00020A814211522331C00F05CFA002800D1DC
:1092D0008CE68BE5249A002A00D187E500220493CE
:1092E00092462EE052460C235343249A1620914670
:1092F00099444A462B789288591C0332C9B2F254D9
:10930000705449469A1C0433D8B24B46D2B22A70E4
:109310000988B2181170090A517028709A88002AB9
:109320000BD09968002900D160E5301800F081FA6F
:109330004B469A882B78D3182B7053460133DBB2F7
:109340009A46582104AB049A5B189B5C5345C9D8D4
:10935000CCE604AB1B8C4F3A1D2B00D8FBE5EDE5AA
:10936000799301005C24002061DF704751DF704772
:1093700076DF704775DF704710B5184C184B2088A2
:1093800082B0984212D0A378227C0133DBB2A37062
:109390009A420DD20023A370237D002B13D1A36921
:1093A000002B03D0002201A80270984702B010BD24
:1093B000211C2031FFF7DEFF0028F7D0E369002BE6
:1093C000F4D09847F2E73B21FFF7D2FF0028E6D020
:1093D000E369002BE3D09847E1E7C046142400205E
:1093E000FFFF000065DF7047F0B55F465646444614
:1093F0004D46F0B485B09A460E9B061C98461B78E5
:109400008B4601930388171C002B40D000239946FC
:1094100002AB0024DD1C03E033880134A3422CDDC1
:109420007368A1009C460422614403A800F001FA7D
:1094300003A8291C0022FFF7D5FF002828D12B788C
:10944000BB42E9D14B46002B29D043461A78D319A9
:109450001F2B34DC524403A8291CFFF7C3FF00284C
:1094600016D143461A782B780134D318424613702C
:10947000012399463388A342D2DC4B46002B06D009
:10948000434651461B78019A013B9B1A8B5400209E
:1094900005B03CBC90469946A246AB46F0BD43465B
:1094A0001B78DA191D2A0ADC41469A1C0A705246BA
:1094B00059460133DBB2D15443461A78CAE70C202F
:1094C000E6E7C04608B5081C111C00E000BF08BD57
:1094D00070B5264C84B0A36A002B04D098470028AE
:1094E0001FD104B070BD2C23E35C002BF9D0236B9B
:1094F000656B1E1C019373425E416B425D41F6B287
:10950000EDB2002E1AD0002DEBD1E56B02AA238F0D
:10951000281C911C5380FFF727FF0528E1D0002865
:109520001AD0FFF701F9E56B02AA238F281C911CC2
:109530005380FFF719FF0528F1D1012503A8FFF794
:1095400015FF05280DD00028EBD10398019B984703
:10955000002DE8D00125F1E7281C636B9847002512
:10956000CFE7002DBDD10126CFE7C046142400204F
:1095700010DF70472EDF70471F4B1B78012B00D088
:1095800070471E4B1B681B07FAD1F0221C4B1B684F
:10959000134018D11B4B1B6813421AD0174B1B6882
:1095A0001B07EDD1F022164B1B681340402BE7D16F
:1095B000144B1B681342E3D1C12380220121DB003D
:1095C000D205D150DCE7102B0FD10E4B1B68134294
:1095D000E8D10D4A0D4B1A6080220D4B12021A6021
:1095E000054B1B78012BD9D0CAE7302BDAD1054BBC
:1095F0001B681342D6D1ECE7E00F00F0E40F00F057
:10960000E80F00F0EC0F00F0DFFF07C0040500409A
:10961000186C0040F0B54746534C80B4231C4033CF
:109620005B88228C82B09A4210D8628C9A420DD309
:10963000A369002B03D0012201A8027098470022E1
:109640005823E25402B004BC9046F0BD5823E35CBA
:10965000002B07D0A369002BF1D0002201A80270D3
:109660009847ECE7A378002B0DD0E568E36CA26C7B
:10967000002B0AD05021615C07208A4207D3E3699E
:10968000002BDBD1DBE7A568F0E70820F7E7042D26
:10969000F5D9D100891889005B18197801300129A2
:1096A000EDD100215B788846012B2FD02F4B102164
:1096B0005B68DB05DB0D2DD1636D9C4661444B7807
:1096C00088785E1C301A471EB84140420640087830
:1096D000B0421DD05800C3184868DB00844663447C
:1096E000002B15D001205A601870214A2148825859
:1096F000DD609A6042461A6100225A614E708023F2
:1097000080211D4A49035B00D15098E7A846CDE768
:109710000420B4E7103BD8B241B2002913DB89081A
:109720001548C03189000958032003408340D940BF
:10973000CBB29B09DBB20021012BBDD00831032B3A
:10974000BAD00831B8E70F230C4903408C46083BD8
:109750009B089B006344596803230340DB00D94006
:10976000CBB29B09E6E7C0461424002000ED00E0E0
:10977000040500000010014000E100E018ED00E0E9
:109780007BDF704770B51C1C82B0069B161C0093D3
:109790000222231C051CFFF727FE002807D1069B89
:1097A000281C0093311C1022231CFFF71DFE02B061
:1097B00070BDC0467DDF704779DF704772DF70474C
:1097C00003210A4802680A430260094802680A4302
:1097D00002600849084A094B9B1A03DD043BC8583C
:1097E000D050FBDC0648804706480047240500406F
:1097F000540500409C990100002000207C2000209E
:1098000079950100C1800100FEE7FEE7FEE7FEE773
:10981000FEE7FEE730B50024944208D0035D651CE6
:109820000C5DA34201D0181B02E02C1CF4E70020C1
:1098300030BD002310B5934203D0CC5CC454013337
:10984000F9E710BD0023C25C0133002AFBD1581E8A
:1098500070470000F8B5C046F8BC08BC9E4670478B
:10986000F8B5C046F8BC08BC9E46704743000000EF
:1098700000200020DE8701000688010070870100BB
:109880003A8801005088010070870100708701004C
:10989000D087010070870100968801007087010061
:1098A00070870100708701007087010070870100D8
:1098B00070870100708701007087010070870100C8
:1098C00070870100708701007087010070870100B8
:1098D00070870100708701007087010070870100A8
:1098E0007087010070870100708701007087010098
:1098F0007087010070870100708701007087010088
:109900007087010070870100708701007087010077
:109910007087010070870100708701007087010067
:109920007087010070870100708701007087010057
:109930007087010070870100708701007087010047
:109940007087010070870100708701007087010037
:109950007087010070870100708701007087010027
:109960007087010070870100708701007087010017
:109970007087010070870100708701005A8701001D
:10998000341201005261766954656A6152656464FB
:04999000790000005A
:089994002CE7FF7F0100000039
:10999C0000000000000000000000000000000000BB
:1099AC0000000000000000000000000000000000AB
:1099BC006C98010000000000000000000000000096
:1099CC00000000000000000000000000000000008B
:1099DC00000000000000000000000000000000007B
:1099EC00000000000000000000000000000000006B
:1099FC00FFFF00008C200020A8200020C0200020A9
:0C9A0C000000000000000000000000004E
:04000003100097C191
:00000001FF
