:020000021000EC
:108000000040002029C0010071C0010073C00100C0
:108010000000000000000000000000000000000060
:1080200000000000000000000000000075C001001A
:10803000000000000000000077C0010079C00100CE
:108040007BC001007BC00100098F01007BC00100E3
:108050007BC0010000000000899701007BC0010087
:108060007BC001007BC001007BC001007BC0010020
:108070007BC001007BC001007BC001007BC0010010
:108080007BC00100B18401007BC001007BC0010006
:10809000958501007BC00100F5BF01007BC0010098
:1080A0007BC001007BC00100000000000000000058
:1080B00000000000000000000000000000000000C0
:1080C000164B002B00D1144B9D46402292029A1A67
:1080D000924600218B460F461348144A121A00F0AC
:1080E00067F80F4B002B00D098470E4B002B00D0A9
:1080F00098470020002104000D000D48002802D000
:108100000C4800E000BF00F02DF82000290002F02C
:10811000EFFA00F011F8C04600000800004000200F
:10812000000000000000000070200020BC2800209B
:108130000000000000000000084B10B5041C002BDC
:1081400002D0002100E000BF054B1868836A002BB5
:1081500000D09847201C00F033F8C0460000000013
:108160003CD001000E4B70B500251E1C0D4CE41ACE
:10817000A410A54204D0AB00F35898470135F8E7A6
:1081800004F04EFF084B00251E1C084CE41AA410F6
:10819000A54204D0AB00F35898470135F8E770BD0D
:1081A000702000207020002070200020702000200F
:1081B000031C8218934202D019700133FAE770470A
:1081C000FEE7C046F8B54D465F4656464446F0B415
:1081D000224B1978994600292AD0214B0025984630
:1081E000204B214F01269A4603E00135EDB28D4226
:1081F0001ED243461B68321C9C46EC006444207827
:108200003B6882401342F0D093433B6001F0B2FAE6
:10821000331C22785146934009680B40011C914061
:108220008B420BD04B4601351978EDB28D42E0D32D
:108230003CBC90469946A246AB46F8BD616863785F
:108240008B460029EED0591E4C424C41211A4B421C
:108250004B41101CD9B2D847E4E7C0467820002033
:10826000742000207C20002084200020F8B5124DCE
:10827000071C286800F05CFD002807D10124BC40E1
:108280000E4E3368234202D0A3433360F8BD381C3E
:1082900001F070FA0A4A136800280BD023431360D8
:1082A000336828681C43074B00221968346000F0CB
:1082B000B1FCEBE7A343F2E78020002084200020FC
:1082C0007C20002070200020F0B54F464646C0B408
:1082D000141C071C83B00E1C0720042A04D803B00A
:1082E0000CBC90469946F0BD01F0BAF800282FD09A
:1082F0001A4B1B4A1F601B4B751E1E701A4BEDB2AA
:108300001C6000231360194A1360002E1AD0184B0A
:1083100001AC994603230026984600E01D1C424606
:10832000EB00FB182270A670E6709A7818786270DD
:10833000211C4A4601F00AF90028D0D16B1EDBB29D
:10834000002DEBD100210B4A0B4800F02FFCC6E7B3
:1083500001F04CF80028CBD0C1E7C04674200020C3
:108360007C20002078200020702000208420002025
:108370006D820100C58101008020002070B5094D8B
:108380002B78002B0BD00024074E3268E300985C5A
:10839000012101F0A1F92B780134A342F5D8002086
:1083A00070BDC0467820002074200020BFF34F8F9E
:1083B000024A034BDA60BFF34F8FFEE70400FA0571
:1083C00000ED00E010B500290DD00923002A01D1ED
:1083D000181C10BD541E2240FAD1826001608480B6
:1083E000C2600023F4E70E23F2E7C046031C10B579
:1083F0009C888068DA68121A0420944200D210BD6A
:10840000DA68002014401A681155DA680132DA601F
:10841000F5E7C04610B58468C268031C0520944285
:1084200009D098689A8802401868825C00200A7017
:108430009A6801329A6010BD80218023184A89020F
:10844000D1508022D221174B520289005A50403914
:108450005A5001222F205A600138C046C046C046FB
:10846000C046C046C046C046C046C046C046C046DC
:10847000C046F1D19A6000230B4A2F2013600138C7
:10848000C046C046C046C046C046C046C046C046BC
:10849000C046C046C046C046F1D1044A137070477A
:1084A00000E100E00010014088200020B020002002
:1084B000A021F0B5002247462C4B490080B45A5009
:1084C00004315A5004315A5004315A504C395A50E0
:1084D00004315A50264A17687A1C38D0254A00259C
:1084E0009B58254A254E14681C1B254B2402240A40
:1084F000984601E07B1C1BD03268FB009446DB19D8
:108500009B0063445A68A24212D8A41AAD181F6A8D
:108510009A69D96943461B68002B1BD0101C9847E9
:108520000028E7D000210022FFF740FF7B1CE3D1A9
:10853000144B15491A780B789A420ED0134A9B00B7
:108540009D5080218023124A49035B00D15004BC16
:108550009046F0BD081C9047CCE70132D3B2022B05
:1085600001D00B70EAE700230B70E7E70010014031
:10857000A02000200405000088200020902000207A
:108580008C2000209C2000209D200020A82000207E
:1085900000E100E0F0B55F4656464D464446F0B473
:1085A000C94BCA4A1B68CA498DB00793097813782A
:1085B000994200D154E20133DBB2022B00D11AE21E
:1085C0001370C44A9B009B58079A9C4662440693CA
:1085D0001302BD4A1B0A136001230893BE4B0025FA
:1085E0001B681E1C0B93BD4B1B78191C0A1C0393A4
:1085F000BB4B013A1B68D2B20593BA4B0291186883
:10860000B14B02921B680A93B74B1B780993331C3A
:10861000FF2A3DD00599D200894691444A464946F1
:1086200012784978B44601904E468A4228D077683D
:108630005400A418B8460132B778D2B2BF1A781ED7
:108640008741E4007F4244443A402778022F00D11A
:10865000DAE0032F00D0D4E06046013000D1D0E052
:1086600063460198D900CB189B00C3181D751B6A7F
:10867000591CF7D11F1C01907178BC468A42D6D193
:10868000029A0198013AD2B266460292FF2AC1D1FB
:10869000914A0A9913608C4A242411606946091989
:1086A000914A097805961170089A002A00D0A4E131
:1086B0000B9B059F9B1B5A1E9341DBB20693012324
:1086C0005B429C46864B1B680493864B1E687E4B20
:1086D0001B689B46804B1B680193834B1B7802935E
:1086E00000239946039B013BDBB20393FF2B00D190
:1086F000FEE0049ADB0092469A446346013340D080
:108700006346DC006444A4003419236AE0469C46B6
:10871000A268E1685B467548D31A1B021B0A8342B4
:1087200066D85B1863604B46A360E3600123237542
:10873000023B23627B1C00D1BDE0FB00DB199B00E8
:10874000F318606859683D1C884209D8A5E0D30039
:108750009B189B00F3185968814200D3A8E0151CB0
:108760001A6A401A531CF2D1EB005D19434622628B
:108770003A1CAD00751960602B62171C634601330B
:10878000BED1534652461B7852789A42AAD05246DE
:108790005268580090465246C0180133DBB213703D
:1087A0009278C00040449A4200D189E043683A1C64
:1087B00098460378012BE0D14346DC004444A400F2
:1087C0003419237D002BD8D18268A260C168E16092
:1087D000056925614069E061029800289AD0A3608C
:1087E00000225B464148D31A1B021B0A834298D9D8
:1087F0005B469A1A1202120A8A4256D2891A61609C
:1088000091E76746BC4639E76468E000071980468F
:108810000198BF008146BA46CA445046007D67466B
:108820008146002800D128E76146013114D0644513
:1088300000D1CEE0049201989B4602E09C4210D009
:108840001F1CF900C919890041180B6A5A1CF5D17F
:108850005B466746049A019051460D757178BC4697
:108860000CE7049A01905B46BC4200D19CE0444472
:1088700080466746A40044446068246A84460C62CB
:10888000611CE9D00198E100804609198900414442
:1088900048681F1C60444860DEE7091A5960424678
:1088A000434627620193171C68E74B4663603AE72B
:1088B000091A596058E7434642460193171C5DE781
:1088C00053464A461A7071E7882000209C200020F9
:1088D0009D200020A8200020A0200020942000201F
:1088E0009820002090200020A4200020FEFF7F0080
:1088F000644B019A1A60059B9F4200D16DE07B1C7E
:1089000000D1BBE0604BFA00D7191B68BF00DB1930
:108910005C685E485E4B5F4DC1585F4B2E781B68AC
:10892000CA1A1202120A03329046002E1FD1802664
:10893000D1277602BF00C651403FC651C0228027D2
:10894000564EBF025200B7503760012606602F20F6
:108950000138C046C046C046C046C046C046C046B4
:10896000C046C046C046C046C046F1D12E70424601
:10897000A24200D2221CA820D2181202130A434A93
:10898000C000135042485B1A12581B02521A1202BE
:10899000120A03321B0A9A4223D9802180233F4ABC
:1089A00089025B00D1501CE06346DB0063448446CF
:1089B0000C1C9B0063441B6A1F1C581C00D05BE707
:1089C0000127324887604846099000201F1C0A9002
:1089D00052E7544653465146EDE7069B002B00D024
:1089E0008DE700232E4A13700DB03CBC904699468B
:1089F000A246AB46F0BD0023E2E5234A00241768F7
:108A0000012252429446002260469046721C1FD0BA
:108A1000F20092199200BA185168069DA94223D813
:108A20006B1A0693434653604346641811691375E5
:108A30008C46136A002908D0079910626118090250
:108A4000090A91606146301CD1601E1C721CDFD186
:108A50000C4A84461360012305960693371C31E6C1
:108A6000002306930893B9E584460648491B036032
:108A70000123059651600693371C23E6FFF7DCFCC3
:108A8000AFE7C046A0200020902000200010014049
:108A900004050000B02000208820002000E100E054
:108AA000A4200020F8B51E1C051C0F1C141C072058
:108AB000B30700D0F8BD002EFCD0FFF7BDFC2E4B55
:108AC000069A1A602D4B1F702D4B1E60002F51D03F
:108AD000331C0022F900C819800030181A701A756A
:108AE00024338342FAD1C919890073180321181C51
:108AF000244A1830117061000919234AC9005860CE
:108B0000401813604118002259610121D86080206B
:108B10009C709C729C74C5241A705A701A725A7296
:108B20001A745A74194B49421960194B40031A7050
:108B3000184BA4001A70184B8132FF3298501A5902
:108B40000131FF318A433F390A431A51A12218608B
:108B5000C4201249D2008D5080001C58104A224077
:108B6000C024240222431A500E4B0020CA580E4B38
:108B70001A609FE70021B6E78C2000209E2000208D
:108B8000902000209420002098200020A020002089
:108B90009C2000209D20002000E100E0001001400A
:108BA000FF00FFFF0405000088200020F0B5174BF0
:108BB00094461E68002E1DD0002A19D0002817D018
:108BC000134B1F78002F11D03378002B14D0341C96
:108BD0000023243407E0261C2434251C243D2D7852
:108BE0001A1C002D09D00133BB42F4DB0420F0BD78
:108BF0000720FCE70820FAE70022012333706346D0
:108C00007170B36102600020F1E7C046902000203F
:108C10009E200020F0B5474680B43D4B1C68002CD8
:108C200047D03C4B1D780723854203D8181C04BC51
:108C30009046F0BD0429F9D9C3001B189B00E41825
:108C400025780823012DF1D163780024A046012B5B
:108C500031D0314B10245B68DB05DB0D2FD12F4B5E
:108C60001D682D196B78AC785E1C341B671EBC41E7
:108C7000644226402C78B4421FD05C00E3186C6834
:108C8000DB00E4180423002CD0D0033B2370606089
:108C9000234B2448C358E160A360434680212361ED
:108CA00080236261204A5B0049036E70D15000232B
:108CB000BCE70823BAE78846CBE70423B6E7103BB6
:108CC000DDB26CB2002C13DBA408174DC034A40035
:108CD000645903252B40DB00DC4023069B0FDBB2ED
:108CE0000024012BBBD00834032BB8D00834B6E7DE
:108CF0000F230E4C2B40A446083B9B089B0063446B
:108D00005C6803232B40DB00DC40E3B29B09E6E711
:108D1000902000209E20002000ED00E09820002000
:108D2000040500000010014000E100E018ED00E043
:108D300030B5334B1A68002A34D0324B19780723E8
:108D4000814201D8181C30BDC3001B189B009A5CDF
:108D50000823012AF6D12C4B0F325B68DB05DB0DB3
:108D600024D12A4B196889184B788A785C1CA21A7E
:108D7000551EAA41524214400A78A24214D05A0009
:108D8000D3184A68DB00D2180423002ADAD0023B49
:108D9000137050604C7080211D4AFE334903D1503E
:108DA0000023CFE70823CDE70423CBE7103BD9B25C
:108DB0004AB2002A13DB92081549C0329200525879
:108DC00003210B40DB00DA4013069B0FDBB20022CD
:108DD000012BC6D00832032BC3D00832C1E70F23C2
:108DE0000C4A0B409446083B9B089B0063445A681E
:108DF00003230B40DB00DA40D3B29B09E6E7C04611
:108E0000902000209E20002000ED00E0982000200F
:108E100000E100E018ED00E070B5161C0C1C8D1888
:108E2000002A05DD2078013400F060FAAC42F9D167
:108E3000301C70BD10B50C1C201C00F04FFA05282A
:108E4000FAD0012010BDC04630B585B000F092FCCC
:108E500000282FD1274C2378DBB2002B05D0032B21
:108E600001D10223237005B030BDA0220421224B82
:108E7000D2009950012221481A608568C1688D424C
:108E800022D02178022900D09A606B46D91DFFF7C5
:108E9000C1FA002823D1C2218022174B89005A50E1
:108EA0006946C8791649585002212170C1218900AC
:108EB0005A50D8E70F4A1378DBB2012B06D0022BA9
:108EC000D1D103231370CEE72270CCE700211170BB
:108ED000094AD3605360A023DB00D150C3E70123CC
:108EE000054A02A8D360237002330370054B1B6848
:108EF0009847B8E7C820002000200040B820002094
:108F00001C050000B4200020842210B5414B520003
:108F1000995884B000292DD18E223E4B5200995889
:108F2000002914D192223B4B5200995800290CD0B1
:108F3000002199509021C9005A5802A85A50022382
:108F40000370354B42601B68984704B010BD002188
:108F5000324C99502278D2B2002AE3D0022A21D989
:108F6000032ADFD1023A2170DA605A60A022D200CF
:108F70009950D7E700219950A322D2009958284C44
:108F8000C9B2201CFFF732FA00282AD1A268E36890
:108F90009B1A012BC0D1204A02AB18701268181C12
:108FA0009047B9E71F488168C26891422DD0227866
:108FB000022A01D001229A606B46D91DFFF72AFAD6
:108FC000002817D1C2218022124B89005A506946CD
:108FD000C8791549585002212170C12189005A5081
:108FE000A0E7012202AB1A700B4A03901268181C0A
:108FF000904791E70123074AD3602370032302A817
:109000000370054B1B6898478CE70122DA602270D9
:10901000F4E7C04600200040B4200020C820002013
:10902000CC200020B82000201C050000F0B55F46D1
:1090300056464D464446F0B400279A4E89B03770E4
:10904000994F3A600722002909D08A880D1C041C18
:10905000096896480193FFF7B5F9021E07D0101C66
:1090600009B03CBC90469946A246AB46F0BD904B39
:10907000AA89A968181C9846FFF7A4F9021EEED128
:10908000A02203216378D205C133FF339B0099509E
:109090002378C133FF339B0098506178854B864A13
:1090A00099502178854A9950A168854A99506279EA
:1090B000002A48D00E21834A99502379022B5FD091
:1090C000012B43D0A02204217A4BD20099500022D8
:1090D0000531FF315A507B4814315A50195801322A
:1090E00091431950012164384942195008301950F0
:1090F0009A601A603270129B1B88002B05D1724A4D
:109100001378591C1170129A13800121C222694BE5
:10911000494292009950A121043A89009950C023F4
:1091200004216A4A5B00D150019BC0209D01FF23AE
:10913000800014581D40664B2D0423401D431550DC
:10914000116000228BE75F495A50B6E7A021042046
:10915000584AC900505000210530FF3011501430DA
:1091600011505848115819431150A221E078C900F4
:109170005050A07808395050936013603370BAE7AC
:1091800000F06EF9002804D100F030F9021E00D082
:1091900065E700239946002304A90B804B468B709A
:1091A00001234B70A0789A4600F062F9021E00D0AD
:1091B00055E7404B01229B46A22359465242DB0011
:1091C000CA50A278083BCA503E4A8B5851460B43BE
:1091D00059468B50032305A90B704B464B708B707F
:1091E000CB703C4AE07800F0B1F9051C021E00D0BB
:1091F00035E7E078012100F06FFAE07800F0BAFA84
:109200003378DBB2002807D0012B0DD0022B00D021
:1092100071E7032333706EE7002B0ED0032B00D0D1
:1092200069E70223337066E74A4632705A46D360D4
:109230005360A023DB00D5505DE7A02304225946EC
:10924000DB00CA50524643460A609A68DB689A427D
:109250001AD03378022B01D052468A6002ABDC1D53
:109260004046211CFFF7D6F8002810D1C2218022E9
:10927000104B89005A5020781749585002213170FC
:10928000C12189005A5036E75346337033E7012332
:10929000084A06A8D3603370023303703B689847CE
:1092A00029E7C046C8200020B4200020CC200020A0
:1092B000B8200020002000400C050000140500002C
:1092C000240500006C0500006420002000E100E09F
:1092D000FFFF00FF498E01001C05000008B5011CBE
:1092E0000148FFF797F808BDCC20002070B51A4D53
:1092F000011C84B0281CFFF779F8184C061C237851
:10930000DBB2012B02D0301C04B070BD2278022ADF
:1093100001D0134A93606B46281CD91DFFF77AF8D9
:1093200000280ED1C22180220D4B89005A50694677
:10933000C8790C49585002212170C12189005A5026
:10934000E1E70123064A02A8D360237002330370C9
:10935000054B1B689847D6E7B8200020C82000209E
:10936000002000401C050000B4200020F0B50028BB
:1093700020DBFF271B4B03229C463B1C8408C02696
:10938000C0B20240D2009340A4006444B600A55984
:109390009D438B013B409340191C2943A1511F233E
:1093A00018401E3B8340C022181C0E4B52009850A0
:1093B0001860F0BDFF260C4A03249446321C0F238C
:1093C000C0B20440E400A2400340083B9B089B005D
:1093D0006344DD6995438A013240A240111C294350
:1093E000D961DCE700E100E000ED00E010B51A4CC7
:1093F00008202378002B00D010BD4C22FF21013B18
:10940000A3540132A1540132A3540132A3540132B6
:10941000A354E362013223636363A363E3632364BE
:109420006364A3640238FE39A3546360A360E360FD
:1094300023616361A361E36123626362A362FFF757
:1094400095FF8021C123054A9B000906D1500123C5
:1094500000202370D0E7C046DC20002000600040E0
:10946000024B1878431E9841C0B27047DC200020A0
:10947000F0B50425314A041C131828335D57082021
:10948000013500D0F0BD8878002836D0536801330C
:109490004DD0936801334CD0D36801334BD013695E
:1094A00004200133EED10323254DA227AC46101929
:1094B000283003719B00FF00D21800206344DE595E
:1094C000204D50603540802608784A78DD51DD59BE
:1094D00076031205AC4632400504C026281CB602AD
:1094E00030400243F820151C4001220210402A1C83
:1094F000024360460243DA5101E0FE221A71231C46
:10950000A0220320C133FF339B00D20598504B7833
:10951000012B05D00120A0400B4BD0500020B1E71B
:10952000A3401C1CA123DB00D4500020AAE7002389
:10953000BAE70123B8E70223B6E7C046DC200020E3
:1095400000600040FFE0ECFF0C050000F0B547466E
:1095500080B45E4C0825231828331E797F2E03D84B
:10956000281C04BC9046F0BDCD78AC46002D4CD0F4
:109570006568013500D19EE0042300269846731CDF
:109580009D0067197F68013748D0B31C98453AD9C8
:109590009D0067197F68013740D0F31C984532D988
:1095A0009D0067197F68013738D0331D43452AD2A3
:1095B0009D0067197F68013730D0731D984522D907
:1095C0009D0067197F68013728D0B31D98451AD9C7
:1095D0009D0067197F68013720D0F31D984512D987
:1095E0009D0067197F68013718D0013398450AD963
:1095F0009D0067197F68013710D00936B04502D940
:10960000A36A013308D00425AAE76569013556D05D
:109610000A2304269846B2E7092324252718DEB238
:10962000283765193E716A606246002A02D1E31844
:10963000443318718B78002B15D1031CA0254A7870
:10964000C133FF3392009B00ED055A51CB78002BBC
:1096500015D176B2A41944340B7822799B011343B7
:10966000237100257CE7A022D2059446E02502273D
:1096700083006344ED005A59BA435A51E6E7A224E5
:1096800076B2134BB600F318E4000A781D5911495D
:10969000000229401951F82149010840061CC02147
:1096A0001004021C301C89021D590A401043284333
:1096B0001851002554E700261E716260BAE70425A0
:1096C0001D712E1C62612B1CB1E7C046DC200020FE
:1096D00000600040FFE0FCFF30B5234B1A18283231
:1096E000147962B2032A18DD9B1844331B799B0955
:1096F000032B2CD0012B33D0C025AD02A023DB05DA
:109700009C46E02380006044DB00C4581749214098
:10971000C150C2582A43C25030BD032CFCD8144B50
:10972000A2259C46012390006044ED0044591C434F
:109730004451101C644600254030800080B2055121
:109740000029E9D09340C1229200A350E4E7A2236C
:10975000A022DB00D205D258012383401A42CBD18C
:109760008025AD02CAE7C046DC200020FFFFFCFFD9
:1097700000600040A223A022DB00D205D358C340E2
:10978000181C012318407047F0B544465F46564602
:109790004D46F0B4834A83B013680024012B64D093
:1097A000814B1A68012A6CD0804B1A68012A00D1BB
:1097B00077E07F4B1A68012A00D182E07D4B0027B9
:1097C0001A68012A00D18DE023070BD0E30700D5EA
:1097D0009EE0A30700D5AAE0630700D5B5E0230704
:1097E00000D589E0002C06DB03B03CBC90469946CE
:1097F000A246AB46F0BDE023DB009846C0239B02A7
:1098000000246D4D994605E0032B00D1ADE00134F5
:10981000062CE9D0231C4C33E95CC023081C984378
:109820002B1828331B795BB2032BF0DD9B00EB1860
:109830005A68002AEBD08B09A021C9058C460193F8
:1098400083009C44414663465B5849460B400121D6
:1098500081401B0C0F42D7D0022BD8D1019B032B88
:1098600000D19BE001999047D1E7C121534889007D
:1098700041580B4294D04C4B14601A680134012AB1
:1098800092D1C1224D499200895802220A4200D148
:109890008AE700211960454B14431A68012A00D059
:1098A00087E7C12245499200895804220A4200D123
:1098B0007FE7002119603E4B14431A68012A00D04B
:1098C0007CE7C1223D499200895808220A4200D112
:1098D00074E700211960374B14431A680027012AE6
:1098E00000D071E71F6080231B061C43A022A22327
:1098F000D205DB00D75867E7304A314B2E4DD058A0
:10990000D158C0048903C00E890F2B69984769E7B5
:10991000A2232A4ADB00D058D158274DC00489031E
:109920006B68C00E890F9847A30700D454E7254BF6
:10993000224A214DD058D158C0048903AB68C00ECB
:10994000890F9847630700D449E7A3231B4ADB002C
:10995000D058D158184DC0048903EB68C00E890F48
:109960009847230700D43DE7C6E7019B032B00D0AF
:1099700078E780239B029A46414663465B584646F9
:109980009B465946104B0B4061468B5163465146EE
:109990009B5919430B1C61468B5163E7C0239B0203
:1099A0009A46E9E700610040046100400861004018
:1099B0000C6100407C610040DC2000200060004021
:1099C0001C05000014050000FFFFFCFF074B1A7880
:1099D0000823002A01D1181C7047002804D0044B2A
:1099E0005B7803600023F6E70E23F4E7FC210020F8
:1099F00030210020A02210B5064BD205D15880237B
:109A00001B041C1CA1208C430B400349C0001450B4
:109A1000535010BD040500000C050000F8B54F467A
:109A20004646041CC0B4112809D012283AD0132885
:109A30003AD014283AD00CBC90469946F8BD00257F
:109A4000012911D000291FD00229F4D16B005D1922
:109A5000204B5D196E78002EEDD01F4B1B68002B3C
:109A6000E9D0301C9847E6E71A4B6F00984642460B
:109A70007B19D65C43445B78002B19D17F1947448E
:109A8000BA78164B5A55E6E7154B1868FFF750F9A8
:109A9000104A6B005B19D318104A9B78565D9E42A2
:109AA000C9D1D8E70125CBE70225C9E70325C7E7D8
:109AB0000B4B18680B4B1B689900C9180A4B4900DF
:109AC0001A1C9946FFF7A6F80028D7D14B461C7000
:109AD000D4E7C046202200201422002008220020C3
:109AE000042200200C220020FD210020F8B5AC4B00
:109AF0001B68DB0700D4F8BDAA4A1478172CFAD8E3
:109B0000A949A300CB589F46A022A84BD205D15803
:109B10008023DB031C1CA1208C430B40A449C00004
:109B200014505350A34B00221868A34B1B68990094
:109B3000C918FFF76FF8DEE7A023F021DB05490421
:109B40009B4A99500021043A9950D4E7A022974BA0
:109B5000D205D1588023DB031C1CA1208C430B4071
:109B60009349C00014505350924B00221868924BF6
:109B70001968FFF74FF8BEE7A021A120A023002617
:109B8000F025C9055B04C000894C0B50874B0E5172
:109B9000CB586D046B408025AD032B4000D1EBE02A
:109BA0000D5003230E5108211370824B00221868B8
:109BB000814B1B685943FFF72DF89CE7A021A1209A
:109BC000A0230026F025C9055B04C000784C0B508B
:109BD000764B0E51CB586D046B408025AD032B4066
:109BE00000D1D1E00D5004230E512821DCE7A02341
:109BF000A122E021DB05D2004904802499500021F4
:109C00006B48A40319501C50995074E76B4D286899
:109C1000FFF78EF811231C1B00D19EE0002800D016
:109C20009BE0012C0DD0C8306421604302F026FA7D
:109C3000614B2D681B6800224343281C191CFEF74A
:109C4000E9FFA0238021DB05090479E7A023B021E7
:109C5000DB054904A122D20099500021544A9950B1
:109C600049E7A021A120A0230027F026C9055B0415
:109C7000C0004F4D0B504D4B4F51CB5876047340A5
:109C80008026B60333406DD00E504F51022C00D1C8
:109C90007FE02821147088E7A023A122C021DB05E2
:109CA000D2004904C024995000214148E4031950CE
:109CB0001C5099501FE7A023A122D021DB05D20020
:109CC00049048024995000213948E40319501C505C
:109CD000995010E7A023F021DB054904BAE7A0233F
:109CE000A122DB05D200A02186E7A021A120A0238C
:109CF0000026F025C9055B04C0002D4C0B502B4BF2
:109D00000E51CB586D046B408025AD032B4030D0F5
:109D10000D500E5105231370264B00221868264B58
:109D200019684900FEF776FFE5E6A021A120A023EF
:109D30000026F025C9055B04C0001D4C0B501B4BD1
:109D40000E51CB586D046B408025AD032B4018D0CD
:109D50000D500E510623137006E7A0238021DB056A
:109D6000090477E74E510B50022C15D004211470D2
:109D70001BE70D510B50CDE70D510B500221032372
:109D800012E70D510B50E5E70D510B500421042350
:109D90000AE71221147008E70221147005E7C04693
:109DA000002200201822002040D0010004050000FD
:109DB0000C0500001C2200200C2200201022002094
:109DC00008B50378112B06D0122B12D0132B12D00A
:109DD000142B12D008BD00235A00D318084AD318F8
:109DE00058780028F6D0074B1B68002BF2D0984714
:109DF000F0E70123F0E70223EEE7113BECE7C04672
:109E00002022002014220020002303280DD8A223A2
:109E1000A022DB00D205D258054B8000C058012398
:109E2000834093435A1E9341DBB200200B7070476E
:109E300000D1010070B5CC4B041C1B680020DB076F
:109E400000D470BD172CFCD8C84AA300D3589F4635
:109E5000A022C74BD205D1588023DB031C1CA120B4
:109E60008C430B40C349C00014505350C24B0022D6
:109E70001868C24B1B689900C918FEF7CBFEE0E7D3
:109E8000A022BB4BD205D1588023DB031C1CA12090
:109E90008C430B40B749C00014505350B64B0022BE
:109EA0001868B64B1968FEF7B5FECAE7B44D2868C6
:109EB000FEF73EFF11231C1B00D130E1002800D02B
:109EC0002DE1012C0DD0C8306421604302F0D6F89A
:109ED000AA4B2D681B6800224343281C191CFEF75F
:109EE00099FEA0238021A34ADB0509049950002193
:109EF000043A9950A5E7A023F021A122DB054904EB
:109F0000D200995000219B4A0020995012229D4B6B
:109F10001A7096E7A023A122E021DB05D2004904B4
:109F20008024995000219348A40319501C50995043
:109F30001322944B00201A7083E7A023F0218D4A4E
:109F4000DB05490499500021043A99508D4B0020BB
:109F50001C7076E7A022B021A123D2054904DB00C2
:109F6000D1500023834900205350864A137068E77C
:109F7000A022A121A0230026F025D2055B04C90060
:109F80007C4853507A4B1650D3586D046B40802553
:109F9000AD032B4000D1D5E055501650022C00D116
:109FA000DDE02821774B1C70734B00221868734B3F
:109FB0001B685943FEF72EFE43E7A023F0216D4AAC
:109FC000DB05490499500021043A9950002038E7F4
:109FD000A023A122D021DB05D2004904802499507E
:109FE00000216448E40319501C5099501422654B19
:109FF00000201A7025E7A022A121A0230025F0242B
:10A00000D2055B04C9005B485350594B1550D358D7
:10A01000640463408024A403234000D18AE05450A8
:10A0200015500821032217E0A022A121A02300251A
:10A03000F024D2055B04C9004E4853504C4B1550D8
:10A04000D358640463408024A403234000D17FE0FC
:10A0500054502821155004224A4B1A70A4E7A0231B
:10A06000A122A021DB05D2004904802499500021BF
:10A070004048A40319501C5099500722414B00201E
:10A080001A70DEE6A023A122C021DB05D20049041C
:10A09000C024995000213748E40319501C509950AE
:10A0A0001522384B00201A70CBE6A022A121A02354
:10A0B0000025F024D2055B04C9002E4853502C4BD8
:10A0C0001550D358640463408024A403234036D041
:10A0D0005450155005222B4B1A70274B002218683C
:10A0E000264B19684900FEF795FDAAE6A022A1219A
:10A0F000A0230025F024D2055B04C9001D4853505D
:10A100001B4B1550D358640463408024A4032340A0
:10A1100022D05450155006221A4B1A70BEE6A023C6
:10A120008021A122DB050904D20099500021114AA7
:10A13000995086E614505350022103228CE71450A4
:10A140005350C7E715505350022C0AD0042129E779
:10A150001450535004217EE714505350DBE7122172
:10A1600020E702211EE7C04600220020A0D0010007
:10A17000040500000C0500001C2200200C22002019
:10A180001022002018220020234B10B51960234B09
:10A19000041C1860224B1A60830712D50D22214B34
:10A1A00021481A700132DA7001329A7101325A7202
:10A1B0004A080421FEF788F8002820D0E30703D4DA
:10A1C0001CE0C3070ED50020A023F022A12100240B
:10A1D000DB055204C9005A5014495C500C315A50E6
:10A1E00000280BD112480021124AFEF7DFFC00289C
:10A1F00004D111480121114AFEF7D8FC10BDFEF729
:10A20000BDF80028DAD10E4800210E4AFEF7CEFC38
:10A21000E307E5D5D8E7C0460C2200200022002045
:10A22000142200202022002010D101000C05000083
:10A230001C220020ED9A010010220020F599010057
:10A2400004220020C19D0100031C0720032B00D91C
:10A250007047012A13D0012917D0002908D00229FC
:10A2600019D15800C3180D48C3185A700020EFE7E1
:10A270005800C3180948C3189A700020E8E7002264
:10A280000129E8D11A1C0D32D2B258000349C31873
:10A290005A540020DCE70720DAE7C04620220020DD
:10A2A000E0231D4ADB00D2581C4B1A400023C10793
:10A2B00001D5C0239B021343E0221749D2008B50E3
:10A2C000174B9A58154B1A400023810701D5C0231C
:10A2D0009B021343E0221249D2008B50114B9A5833
:10A2E0000E4B1A400023410701D5C0239B021343A4
:10A2F000E0220C49D2008B500B4B9A58074B1A4066
:10A300000023010701D5C0239B021343E022064925
:10A31000D20000208B50704744000050FFFFFCFF2C
:10A32000480000504C0000505000005008B5032079
:10A33000FFF7B6FF031C0020002B02D0062B00D035
:10A34000181C08BD10B50388102B08D0112B05D19F
:10A35000294A1368013B1360002B07D010BD264C1F
:10A360002368002B11D001332360F7E7002002217E
:10A370000122FFF769FF00282BD0072829D01F4BA7
:10A380001B68002BEAD09847E8E700200021012253
:10A39000FFF75AFF002808D0072806D0174B1B6884
:10A3A000002B00D098472368DDE701200221072217
:10A3B000FFF74AFF002801D00728EFD10020022133
:10A3C0000422FFF741FF0028EDD00728E6D12368DB
:10A3D000C9E7012002210722FFF736FF002801D03C
:10A3E0000728CCD1002000210A22FFF72DFF0028EA
:10A3F000B4D00728C3D1B1E7302200202C2200209E
:10A4000010B5244B82B00C1E186018D06B4600208B
:10A41000991DFFF7F9FC002801D002B010BD6B4672
:10A420000130D91DFFF7F0FC0028F6D16B46DB792F
:10A43000002B29D16B469B79002B28D12370164B1A
:10A440001B68002B01D00020E7E700200221012239
:10A45000FFF7FAFE002801D00728DED101200221F3
:10A460000722FFF7F1FE002801D00728D5D10020F0
:10A4700000210A22FFF7E8FE0028E4D0C31F5A1E7D
:10A4800093415B421840C8E702232370D7E70B23B0
:10A490002370D4E72C2200203022002076DF704782
:10A4A0007ADF70477CDF70477FDF7047A9DF704736
:10A4B00060DF70473CDF704748DF704708B5002118
:10A4C0000022FDF773FF08BD70B50D1C161C00249B
:10A4D000002A07D0285DFEF709FF0028FAD10134D1
:10A4E000B442F7D30A20FEF701FF0028FAD170BD6D
:10A4F00008B50378002B00D008BD064B3B21188817
:10A50000FFF7CCFF0028F7D000210022FDF74EFF17
:10A51000F2E7C0466620002010B5041C01F0ACFA3A
:10A520002448211C01F008FB2388112B2DD021D9B0
:10A53000132B11D0522B08D11F4B00211888002259
:10A540000023FFF7B3FF00280FD1201C01F01CF8F7
:10A55000201CFFF7F7FE10BD174B8521188800223D
:10A560000023FFF7A1FF0028EFD000210022FDF714
:10A570001DFFEAE7102BE8D10720FFF75BFC00285E
:10A5800012D1A2880C4B1A80DFE70020FFF752FCA3
:10A59000002804D10122084B52421A80D5E700213D
:10A5A0000022FDF703FFF5E700210022FDF7FEFE84
:10A5B000E7E7C046242700206620002008B50728CA
:10A5C00020D00A2810D0042800D008BD144B132135
:10A5D0001888FFF763FF0823021C9A43F5D0002177
:10A5E0000022FDF7E3FEF0E70020FFF723FC002840
:10A5F00010D1FFF79BFE002807D1FFF75BFF002873
:10A60000E3D0ECE701F032F8E5E700210022FDF7A6
:10A61000CDFEF2E700210022FDF7C8FEE9E7C046C3
:10A620006620002038B50378012B03D0002B07D01B
:10A63000022B04D1406800210022FDF7B7FE38BD8F
:10A64000104C114D20782818FEF748FE2278013270
:10A65000D2B2AB18013B1B7822700A2B01D0132A0F
:10A66000EDD992B20948291C01F09AFB0823021C7B
:10A670009A4303D000210022FDF798FE00232370A7
:10A68000DDE7C04634220020C82400202427002013
:10A6900008B5002806D0022803D1FFF7CBFB00281D
:10A6A0000DD108BD0020FFF7C5FB00280CD1FFF736
:10A6B0003DFE00280DD1FFF7FDFE0028F1D000215E
:10A6C0000022FDF773FEECE700210022FDF76EFE8D
:10A6D000EDE700210022FDF769FEECE708B5031C59
:10A6E0000A1C0248191CFDF761FE08BDEFBEADDE75
:10A6F000F0B5474680B4A6B003AB98464246854BBA
:10A7000003CB03C21B880020138000230521009384
:10A710000522814BFEF7C6F9002803D00021002254
:10A72000FDF744FE0EAD2A1C7C4B06AE13CB13C2C4
:10A73000002333807A4B7B4A1A9380231AAC5B0048
:10A740006360A260E360281C0096211C764AFD3BF2
:10A75000FEF76CFC002803D000210022FDF726FE46
:10A7600003207249724AFFF70FFD002803D0002131
:10A770000022FDF71BFE0020211CFFF741FE0028F0
:10A7800003D000210022FDF711FE0820694948226C
:10A79000002301F0FFFB002803D000210022FDF779
:10A7A00005FE0822201C0021FDF702FD012223786E
:10A7B000201C93432370FFF77BFE002803D0002169
:10A7C0000022FDF7F3FD5C4801F00AFC002803D0ED
:10A7D00000210022FDF7EAFD0F2101222B78574FBF
:10A7E0008B43134310220B401343381C2B7001F092
:10A7F000FBFC391C82B2281CFFF754FE002803D052
:10A8000000210022FDF7D2FD201C00210822FDF7C7
:10A81000CFFC102323802C3363800023A38091334B
:10A82000FF33201CE380FFF73BFE002803D000210C
:10A830000022FDF7BBFD0021201C0422FDF7B8FC1F
:10A840003F4B4048211C1A9301F0A6F9002803D081
:10A8500000210022FDF7AAFD00213022281CFDF76F
:10A86000A7FC022300272B70002103333022201C79
:10A87000EB70AF70FDF79CFC01232382324BB76075
:10A880006361012333724023F36074333361776073
:10A890007761B761F761281C0097211C321C2B4B94
:10A8A000069700F093FC002803D000210022FDF75A
:10A8B0007DFD1C22201C0021FDF77AFCA0229202C3
:10A8C0006260F02200231203A26003221A93E38144
:10A8D00023741F4B201C63611E4B2273A36101F084
:10A8E0008FF8002803D000210022FDF75FFD1A48F1
:10A8F000414601F05FFC022000F026FD002803D154
:10A90000FFF7DAFD0028FBD000210022FDF74EFD05
:10A91000F6E7C0464CD101003822002030D10100BA
:10A9200024260020DC24002025A60100CD0C0000F8
:10A93000BDA50100DC25002019A501003CD10100C6
:10A94000C9A40100242700206820002091A601004E
:10A95000F1A40100BDA4010048D1010072DF7047DD
:10A9600079DF70477DDF704765DF7047F0B55F4680
:10A97000564644464D46F0B485B09A460E9B061C9A
:10A9800098461B788B4601930388171C002B40D0F8
:10A990000023994602AB0024DD1C03E03388013418
:10A9A000A3422CDD7368A1009C460422614403A8E5
:10A9B00001F0F6FB03A8291C0022FFF7D5FF0028B1
:10A9C00028D12B78BB42E9D14B46002B29D04346F6
:10A9D0001A78D3191F2B34DC524403A8291CFFF723
:10A9E000C3FF002816D143461A782B780134D318B8
:10A9F00042461370012399463388A342D2DC4B466A
:10AA0000002B06D0434651461B78019A013B9B1A06
:10AA10008B54002005B03CBC90469946A246AB46FC
:10AA2000F0BD43461B78DA191D2A0ADC41469A1C00
:10AA30000A70524659460133DBB2D15443461A7864
:10AA4000CAE70C20E6E7C046F0B556464D464446F8
:10AA50005F460023F0B497B005AD02AA041C0E1C9B
:10AA60002B705373002800D11EE1C3785B0700D41C
:10AA7000B2E00378002B00D0DAE18378002B00D01D
:10AA80000BE20023E278002A00D0ADE06268002AE1
:10AA90000FD011781C2B00DDFEE002220A2006AF49
:10AAA000FA545A1CD2B2B854DA1C0233DBB22A7000
:10AAB000F9542389002B00D00BE2238A002B00D00D
:10AAC000A6E2238B002B00D0BBE2236A002B4BD0E5
:10AAD0002A780C20911D8A461F2900D97DE019880B
:10AAE00005388B46052978D96C4F6946BC46DC444D
:10AAF00067468F818F89BC46694FB846BC456CD983
:10AB00005F88BC46052F68D9644F67448F81BFB208
:10AB1000474562D9634FBB4503D0BC4501D0E345EF
:10AB20005BD8052006AFB854901CC1B22970894685
:10AB30006946501C0873C0B28446122080466046A5
:10AB400041463954198804328C4649467818614682
:10AB500001706146090A41705B88D2B2BF183B7030
:10AB60001B0A7B7053462B70636A9846002B2BD0D0
:10AB70001B792A789C460233911CDBB2CB180C203F
:10AB80001F2B2ADC634606AF0333BB54531CDBB2D6
:10AB9000F330F8544346C9B229701B8879180B70FA
:10ABA0001B0A4B7043460432D0B228709A88002AA0
:10ABB0000AD0996800290FD0381801F0F1FA4346FD
:10ABC0009A882B78D3182B702C23E15C06AF0029D0
:10ABD00000D0B8E1B94669E0072017B03CBC904608
:10ABE0009946A246AB46F0BD022106AFF954991C26
:10ABF000C9B288460121581CC0B2395441460333BA
:10AC0000DBB22B707A5441E773780C201D2BE4DC07
:10AC100002AB9C460E241D23644426306044211C54
:10AC20002380FFF79FFE0028D7D13378022B00D175
:10AC3000C1E27378002B03D09BB208221D2B01D9EF
:10AC4000082223880EA988464046427002AA527BF9
:10AC5000DBB20232591C9B18DBB202AA017053739B
:10AC6000B278002A00D02DE2F478002C0ED0022217
:10AC7000414647460120CA54591C9A1CC9B20333A5
:10AC80007854D2B2DBB202A94B73BC547268002A6A
:10AC900031D011781C2B20DD0C209EE77FF3FFFFC5
:10ACA0007DF30000FFFF000000239946002E00D135
:10ACB0000DE2F378002B00D08EE702AA53733378AD
:10ACC000002BA1D1B378002B00D0D9E1726800230A
:10ACD000002A10D011780EAA90460222404644461F
:10ACE000C2540A205A1CD2B2A054DA1C023302A861
:10ACF000DBB24273E1543389002B00D002E1338A86
:10AD0000002B00D063E1338B002B00D0E3E1336AEA
:10AD1000002B4BD002AA527B0C20911D1F2900D979
:10AD20005BE7188883465C460720052C00D854E76B
:10AD3000D04F5F44BFB2B846CF4FBC46B84500D8ED
:10AD40004BE75F88BA46052F00D846E7C94F6C46E7
:10AD5000B846D0444746A781A789674500D83CE755
:10AD6000C64FBB4504D0BA4502D0D34500D934E71D
:10AD70000EA8804605204446A054901CC0B202ACE8
:10AD80006073844612274046541CE4B2075560465F
:10AD90001C8840440470240A447004325B88D2B298
:10ADA000424413701B0A537002AB5973746A002C2F
:10ADB0002FD002AB27795A7BBB1C911CDBB2CB187E
:10ADC0000C201F2B00DD08E70EAB984603379F547D
:10ADD0004746C9B202AB5973531CDBB2F330F85487
:10ADE000238841440B7004321B0A4B70D0B202AB73
:10ADF0005873A288002A0CD0A168002900D1EBE684
:10AE0000404401F0CDF902ABA2885B7BD31802AAC3
:10AE100053732C23F15C002900D07DE10EAA9046EB
:10AE200002AB5B7B424629784846FFF797FDD4E6A4
:10AE300063780C201D2B00DDCFE60EAB98461D235A
:10AE40004246138002AB9C46063060444146FFF701
:10AE500089FD002800D0C0E62378022B00D1A3E1B1
:10AE60006378002B03D09BB208221D2B02D94346E6
:10AE700008221B8806AF7A702A78DBB20232591C8E
:10AE80009B18DBB239702B70A278002A00D1F9E54B
:10AE90000C201B2B00D9A0E601E00EAB98464046E3
:10AEA000FFF75EFD002800D097E6032219212B78DA
:10AEB00006AFFA545A1CD2B2B954424611889A1CB1
:10AEC000D2B2BF1804333970DBB2090A79702B7023
:10AED000D8E50823984606AFA044009540460221D5
:10AEE00002223B1CFFF742FD002800D075E60095CA
:10AEF0004046062110223B1CFFF738FD002800D0F9
:10AF00006BE6DAE50EAB02AA98469446341C0D2394
:10AF1000083463440093201C022102224346FFF7B9
:10AF200025FD002800D058E602AA94460D2363446C
:10AF30000093201C062110224346FFF717FD00282E
:10AF400000D04AE6DBE6A36A002B00D144E60022EB
:10AF5000914616329246163228788C46934600E087
:10AF6000A36A4A46984652004A4492009044434697
:10AF700051469B88421C0333D2B23B54B9544246DB
:10AF8000831CDBB22B701288FB181A70120A5A70DD
:10AF900043460430C0B228709A88002A0FD09968BE
:10AFA000002900D118E6381801F0FAF843469888CD
:10AFB0002B78C0185B46E35CC0B29C4628704B46B9
:10AFC0000133DBB299466345CAD3B9466EE60EAB90
:10AFD00002AA98469446341C0D231034634400930F
:10AFE000201C032102224346FFF7C0FC002800D0AA
:10AFF000F3E502AA94460D2363440093201C072125
:10B0000010224346FFF7B2FC002800D0E5E57AE6BF
:10B010001023984606AFA044009540460321022223
:10B020003B1CFFF7A3FC002800D0D6E50095404666
:10B03000072110223B1CFFF799FC002800D0CCE52B
:10B040003FE51823984606AFA044009540461421DA
:10B0500002223B1CFFF78AFC002800D0BDE50095CA
:10B060004046152110223B1CFFF780FC002800D031
:10B07000B3E52AE57FF3FFFF7DF30000FFFF00004B
:10B0800002AB0E249C466444201CFFF769FC002898
:10B0900000D0A2E50EAA90460322414602AB5B7B9C
:10B0A0004046CA5419215A1CD2B281549A1C218894
:10B0B000D2B2424411700433090A5170DBB202AAC1
:10B0C0005373D1E50C201B2B00D986E5DCE702ABDE
:10B0D0005B7B0022A7E60EAB02AA98469446341C7E
:10B0E0000D23183463440093201C1421022243468C
:10B0F000FFF73CFC002800D06FE502AA94460D2320
:10B1000063440093201C152110224346FFF72EFCB8
:10B11000002800D061E5FAE5B46A002C00D15BE5B7
:10B1200003910EA98846162102AB8A4616315B7B35
:10B13000221C00278B4600E0B26A40467C00E419DE
:10B14000A4001419A28841460332C2549A1CD2B2F8
:10B1500002A8427394465246581CC0B20A54624632
:10B160002088424410700433000A5070DBB202AAF7
:10B170005373A288002A11D0A168002900D12BE5C1
:10B180004344181C01F00CF802ABA0885B7B02AAB8
:10B19000C318DBB253735A46B25C03920137039A69
:10B1A000FFB29742C8D33DE643461B8809221D2BB8
:10B1B00000D85FE654E6238809221D2B00D841E51C
:10B1C00037E5C04673DF704774DF7047F8B5002875
:10B1D00000D198E0002A00D195E000254B4C257065
:10B1E0004B4C2360069C4B4B1C604B4C231CE0CA11
:10B1F000E0C3E0CAE0C360CA60C3E368002B00D0CC
:10B2000076E000232372A369002B00D178E0E36984
:10B21000002B00D174E0051C07220F1C3F480021C1
:10B22000FCF7C6FF3E4B3F4A3F4E1A603F4A0021A3
:10B230009A60301C3022FCF7BBFF2B782A1C33703D
:10B24000AB781032B370EB78F3706B787370331C9B
:10B25000103303CA03C3331C103A083303CA03C3B1
:10B26000331C0832183303CA03C36B6A002B11D096
:10B270002F4B304C7362696A9C600A881A808888F8
:10B280009880002806D000238A68D25CE2540133FB
:10B290008342F9D1AB6A002B14D0274B2748B36205
:10B2A000A96A98608C889C800A881A800023002CE8
:10B2B00005D08A68D25CC2540133A342F9D12C2351
:10B2C000EA5CF2542B6A002B06D01D4B33622A6ACB
:10B2D0005188598012881A806B68002B03D0194B53
:10B2E00073606B687360301C391CFFF7ADFBF8BDF1
:10B2F0002369002B00D184E7A369002B00D086E7E7
:10B300000023237587E70E20F1E7C0464828002078
:10B310007C270020A4270020B0270020A827002099
:10B32000F4270020D02700204027002028280020D4
:10B3300070270020802700205028002004280020AB
:10B340004C280020F0270020F0B54746002480B4A8
:10B35000824D88B0287001A80194FEF737FB0828B9
:10B360000BD0002805D1019B002B07D001227C4B7C
:10B370001A7008B004BC9046F0BD0194794B0021CE
:10B38000181C07229846FCF713FF774E2C78737829
:10B39000764F002B34D13B68012C00D1BBE0327AD0
:10B3A000002A02D1022C00D1BAE0327D002A02D15B
:10B3B000032C00D1CDE0002B03D0023C012C00D89F
:10B3C000B6E000226A4B1A7002AC1822201C002141
:10B3D000FCF7EEFE00232A78237063602372E3609B
:10B3E000022A50D0032A27D0012A18D0002A1DD1C2
:10B3F0003B68002B02D05F4A107898470020B8E7DE
:10B400003B68012CCBD15C4A002B62D01470072022
:10B4100098472A783B68012A5CD0141CBFE7414654
:10B4200063822382534B616022701A70201CFFF7E5
:10B43000C9FE0028DCD09CE7338B2382B38B638268
:10B440004E4B1A79002A17D03278002A17D04C4A6E
:10B450001278002A13D1E36004234A480232002103
:10B460002272C370FFF7F0FA002800D081E70522AE
:10B47000404B1A702A78B9E71A7B002AE4D10322DC
:10B480003C4B1A70D2E7338A6382B38923823B4BE9
:10B490001A79002A16D03278002A16D0384A127843
:10B4A000002A12D104263748023200212272E360BA
:10B4B000C670FFF7C9FA002800D05AE72D4B2A784A
:10B4C0001E7093E71A7B002AE5D10222294B1A70DD
:10B4D000ACE713707278002A1DD042465278002AD9
:10B4E00000D068E742469278002A00D063E74246DF
:10B4F000D278002A00D05EE742461279002A00D0B6
:10B5000059E742465279002A00D054E742469279E0
:10B51000002A00D04FE702222A70327A002A16D180
:10B5200003222A70327D002A13D0002B00D148E775
:10B530003278002A00D144E7114A1278002A00D05C
:10B540003FE701210A4A0620117098473CE7022490
:10B5500031E70023074A2B70137032E74828002098
:10B5600049280020A8270020B02700207C270020A1
:10B57000252800205C28002024280020F427002013
:10B58000A02700204027002008B50388112B35D0C4
:10B59000192B06D0102B00D008BD82882A4B1A80A8
:10B5A000FAE78379002BF7D1284A1278022A40D093
:10B5B000032A35D0012AEFD125490A78002A12D072
:10B5C000244B587800283CD19878002839D1D87875
:10B5D000002836D11879002833D15879002830D185
:10B5E0009B79002B2DD10220FFF7AEFE0028D3D08F
:10B5F000194B1B68002BCFD09847CDE70022174B83
:10B600001A70174B5A68124B1A700F4B82881B889E
:10B610009A42C1D10120FFF797FE0028E8D1BBE78D
:10B62000104A1370104B1B68002BB5D000209847B0
:10B63000B2E70C4B03201A70FFF786FE0028D7D123
:10B64000AAE7013A0A70E5E76C20002048280020AC
:10B6500026280020A8270020A4270020A0270020BB
:10B66000B02700205C2800207C270020F0B54F4642
:10B670004646C0B4914C89B02378002B5FD0904DE2
:10B680002B78002B5BD18F4F3B78002B5DD10023B3
:10B69000012601A82E7098460193FEF797F9082815
:10B6A00008D0002800D06FE0019B002B04D0864B0F
:10B6B0001E7045E043460193844B0021181C07226D
:10B6C0009946FCF775FD63783E78002B62D1804B7C
:10B6D00098461B68012E00D18FE0227A002A02D101
:10B6E000022E00D1ADE0227D002A02D1032E00D12E
:10B6F000BDE0002B03D0023E012E00D8A9E00022BD
:10B70000744B1A7002AE1822301C0021FCF750FD59
:10B7100000233A78337073603372F360022A19D0D1
:10B72000032A00D178E0012A00D16DE0002A26D159
:10B7300043461B68002B02D0674A107898470020C8
:10B7400009B00CBC90469946F0BDFFF73DFD0028BE
:10B750009DD0F5E7238A7382A38933825F4B1A79E0
:10B76000002A02D11A7B002A06D02278002A03D0B0
:10B770002A78002A00D190E00222574B1A70301C20
:10B78000FFF720FD0028D3D0554B1B68002BD6D0E7
:10B790009847D4E74E4B98461B68012E9DD1514ADD
:10B7A000002B09D016700720984743463A781B684B
:10B7B000012A02D0161C90E713706278002A1CD070
:10B7C0004A465278002A94D14A469278002A00D0FC
:10B7D0008FE74A46D278002A00D08AE74A46127993
:10B7E000002A00D085E74A465279002A00D080E737
:10B7F0004A469279002A00D07BE702223A70227AE8
:10B80000002A1ED0022674E7494673823382324BE7
:10B81000716032701A70B2E7238B3382A38B73820C
:10B820002E4B1A79002A02D11A7B002A05D02278E1
:10B83000002A02D02A78002A1ED00322264B1A7032
:10B840009DE703223A70227D002A10D0002B00D100
:10B8500055E72278002A00D151E72A78002A00D043
:10B860004DE701211B4A0620117098474AE7002343
:10B87000194A3B70137042E7F36004231A480232FE
:10B8800000213272C370FFF7DFF8002800D07BE799
:10B890000522114B1A703A7848E704241248023204
:10B8A00000213272F360C470FFF7CEF8002800D098
:10B8B0006AE7094B3A781C7038E7C046B027002089
:10B8C000A02700204828002049280020A827002081
:10B8D0007C270020252800205C280020F427002059
:10B8E000A4270020242800204027002075DF70476F
:10B8F00076DF70477ADF70477BDF704710B5184BF3
:10B9000082B01888174B984214D0174A174C1378F6
:10B910000133DBB21370217B99420DD200231370E7
:10B92000237C002B12D16369002B03D0002201A8D5
:10B930000270984702B010BD0D49FFF7D7FF0028ED
:10B94000F8D0A369002BF5D09847F3E73B21FFF728
:10B95000CFFF0028E7D0A369002BE4D09847E2E7A7
:10B960008C280020FFFF0000682800206C280020A1
:10B970009028002030B51C4B1C4A5B88118883B08E
:10B9800099420FD852889A420CD3194B5B69002B0D
:10B9900003D0012201A802709847164C002323709F
:10B9A00003B030BD134C2378002B08D0104B5B69DB
:10B9B000002BF3D0002201A802709847EEE70E4B4F
:10B9C0000B4D1B78002B0CD0A9680C4B002218687B
:10B9D000FDF720F90028E1D0AB69002BDED09847B5
:10B9E000DCE76968F1E7C046602800209028002065
:10B9F0006C2800205D28002068280020882800206E
:10BA0000164938B5021C0B1C32CA32C332CA32C3C3
:10BA100012681A600022124B01681A70002916D0B1
:10BA2000104C0832201C00F0BBFB201CFFF762FF0B
:10BA300000280BD101220C4B52421A8000220B4BE2
:10BA40000B481A7000210B4AFDF7B0F838BD0548C5
:10BA5000FFF752FF0028EDD0F8E7C0466C28002021
:10BA60005D280020902800208C28002068280020D5
:10BA700088280020FDB8010010B50388112B36D0AE
:10BA800022D9122B18D0502B1DD1224CC288E38909
:10BA90009A4218D1C38B022B15D11E33C35CDB072E
:10BAA0000FD41D4B1868FDF743F900280BD0A3698C
:10BAB000002B08D0984706E0811D0822174800F0A7
:10BAC0006FFBFFF757FF10BD102BFCD1011C8288C4
:10BAD000134B16311A801148082200F061FB002236
:10BAE000104B1A700B4BDB89002BECD1E9E70122DC
:10BAF0000B4B52421A8000220A4B1A70064B1868F0
:10BB0000FDF716F90028DED0024B9B69002BDAD036
:10BB10009847D8E76C28002088280020602800205B
:10BB20008C28002068280020A0DF7047A2DF704723
:10BB3000A6DF704763DF704710B5002808D00029E2
:10BB400006D00B88112B16D0502B02D0102B0FD003
:10BB500010BDCB88028A9A4211D082889A42F7D1CE
:10BB60008469002CF4D00B1C2031DA8BA047EFE75E
:10BB70008B888382ECE701235B428382E8E7CA8BF0
:10BB8000022AEAD12023CA5C1F3B134002D00123C2
:10BB90008375DDE78375DBE7F0B54D465F464446C8
:10BBA00056461023F0B495B0041C0D1C04A87B4924
:10BBB000102299460E2700F0F3FA002C0ED0002D2B
:10BBC0000CD001235B42A3822B6804A8A36100234D
:10BBD000211CA375FFF7AEFF071E07D0381C15B058
:10BBE0003CBC90469946A246AB46F0BD237802A9DC
:10BBF0008B700123A21C01200B80FFF795FF071E0D
:10BC0000ECD1002103226846FCF7D2FA6B460F22E2
:10BC10001B7892469343012293465A461343524659
:10BC2000134010229046424613436A4613705378DD
:10BC3000524693435A4613435246134042461343D7
:10BC40006A465370937806229343043A13436A4634
:10BC50000DAD937000211C22281CFCF7A9FA424666
:10BC60002B7801AE13432B706B466A466B612378C9
:10BC7000002193730323301C938103226F60EF60D4
:10BC80002F61AF61FCF794FA524633780021934359
:10BC90005A461343524613404246134352463370AA
:10BCA000737808A893435A461343524613404246BA
:10BCB000134306227370B3789343043A1343082264
:10BCC000DBB293434A4693435A4613431422B3705C
:10BCD000FCF76EFA03AB6A4608930123138514231D
:10BCE0009385231C57856088291C08AA0C33099664
:10BCF000FFF71CFF071E00D070E700211C22281C44
:10BD0000FCF756FA08232A78002113430422134330
:10BD10006A462B702378301C93730223938103228D
:10BD20006F60EF602F616F61AF61FCF741FA5246BF
:10BD30003378002193435A461343524613404246F8
:10BD4000134352463370737808A893435A461343FB
:10BD5000524613404246134306227370B37893430E
:10BD6000043A13430822DBB293434A4693435A46AC
:10BD700013431422B370FCF71BFA03AB6A46089313
:10BD8000012313851423578593856088231D291C5F
:10BD900008AA0996FFF7CAFE071C1FE758D1010041
:10BDA00070B586B06B46041C0D1CDA80002809D0E3
:10BDB000828A114B08209A4202D0A37D002B03D126
:10BDC00006B070BD0E20FBE76B46DB880138142BF4
:10BDD000F6D802AE301C00211022FCF7E9F9A38945
:10BDE000A08A33806B460633B3600123311CF560B3
:10BDF000B370FFF79DFEE3E7FFFF00001F4B1B78CA
:10BE0000012B00D070471E4B1B681B07FAD1F02294
:10BE10001C4B1B68134018D11B4B1B6813421AD0D4
:10BE2000174B1B681B07EDD1F022164B1B68134004
:10BE3000402BE7D1144B1B681342E3D1C12380226E
:10BE40000121DB00D205D150DCE7102B0FD10E4BC6
:10BE50001B681342E8D10D4A0D4B1A6080220D4B2E
:10BE600012021A60054B1B78012BD9D0CAE7302B80
:10BE7000DAD1054B1B681342D6D1ECE7E00F00F096
:10BE8000E40F00F0E80F00F0EC0F00F0DFFF07C058
:10BE900004050040186C00402EDF704751DF7047EA
:10BEA00010DF704761DF704708B5081C111CFEF7F2
:10BEB00015FC08BDF0B557464E464546E0B4314B3B
:10BEC000314E1D6899466B425D41304BB2461C684D
:10BED000984663425C412E4F82B0EDB2E4B2002D31
:10BEE00008D0002C27D002B01CBC90469946A24630
:10BEF000F0BD012401A8FFF7D1FF052831D00028AB
:10BF00002AD000210022FCF751FA002CF1D16A4618
:10BF10001D4B01A91B8893801D4B1C68201CFFF73B
:10BF2000C1FF0528E5D0002810D000210022FCF731
:10BF30003DFA0024D3E73C68338801A9201C0B801C
:10BF4000FFF7B0FF0528CED00028EED14346201CD5
:10BF50001B6898470024C2E74B4601981B68984726
:10BF6000D3E7002CBFD153466A461B8801A99380B2
:10BF7000074B01251C68201CFFF794FF0528D2D130
:10BF8000B1E7C046A02800209A280020A42800205D
:10BF90009C28002038B5041C0720002901D08D07FB
:10BFA00000D038BD094801600949201C0A80094AAF
:10BFB00009491360FFF774FF0028F2D10122074BF3
:10BFC00016301A70FFF768FFEBE7C0469C28002088
:10BFD0009A280020A8280020A9BE01009828002047
:10BFE000002803D0024B1860002070470E20FCE7A9
:10BFF000A428002008B50A4B1B68002B08D09847DE
:10C00000002800D108BD00210022FCF7CFF9F9E794
:10C01000044B1B78002BF5D0FFF74CFFF2E7C0462E
:10C02000A82800209828002003210A4802680A4313
:10C030000260094802680A4302600849084A094B3D
:10C040009B1A03DD043BC858D050FBDC06488047F0
:10C0500006480047240500405405004004D2010072
:10C060000020002070200020FDBD0100C1800100E3
:10C07000FEE7FEE7FEE7FEE7FEE7FEE700224308F5
:10C080008B4274D303098B425FD3030A8B4244D3A0
:10C09000030B8B4228D3030C8B420DD3FF220902E2
:10C0A00012BA030C8B4202D31212090265D0030BA1
:10C0B0008B4219D300E0090AC30B8B4201D3CB0397
:10C0C000C01A5241830B8B4201D38B03C01A5241D9
:10C0D000430B8B4201D34B03C01A5241030B8B42DB
:10C0E00001D30B03C01A5241C30A8B4201D3CB02C6
:10C0F000C01A5241830A8B4201D38B02C01A5241AB
:10C10000430A8B4201D34B02C01A5241030A8B42AD
:10C1100001D30B02C01A5241CDD2C3098B4201D3C5
:10C12000CB01C01A524183098B4201D38B01C01A43
:10C13000524143098B4201D34B01C01A52410309BA
:10C140008B4201D30B01C01A5241C3088B4201D369
:10C15000CB00C01A524183088B4201D38B00C01A16
:10C16000524143088B4201D34B00C01A5241411A3D
:10C1700000D20146524110467047FFE701B500204A
:10C1800000F00CF802BDC0460029F7D003B5FFF758
:10C1900075FF0EBC4243891A1847C0467047C04617
:10C1A000002310B5934203D0CC5CC4540133F9E7AB
:10C1B00010BD00000FB40B4B13B51C68002C05D04C
:10C1C000A369002B02D1201C00F058F805AB201CFD
:10C1D000A168049A019300F063F916BC08BC04B08E
:10C1E0001847C046602000200023C25C0133002AAB
:10C1F000FBD1581E7047000008B5024900F0AEF8A8
:10C2000008BDC04681CD0100002310B5041C0360A9
:10C210004360836081814366C281036143618361BE
:10C22000191C08225C30FBF7C3FF054B24626362D4
:10C23000044BA362044BE362044B236310BDC0466E
:10C24000F1C9010019CA010051CA01007DCA0100EB
:10C2500070B568254B1E5D430E1C291C743100F01F
:10C260009FF8041E08D000212A1C016046600C3093
:10C27000A0606832FBF79CFF201C70BD836913B57A
:10C28000002B28D18364C3640365134B134A1B68D6
:10C2900082620193984201D101238361041C00F062
:10C2A0001FF86060201C00F01BF8A060201C00F04C
:10C2B00017F80421E06000226068FFF7A5FFA0687E
:10C2C00009210122FFF7A0FFE06812210222FFF7F7
:10C2D0009BFF0123A36113BD3CD00100F9C1010004
:10C2E000F8B51D4B061C1D68AB69002B02D1281C3C
:10C2F000FFF7C4FF4835AC686B68013B05D40C22DE
:10C30000A75E002F10D06834F7E72B68002B06D10A
:10C31000301C0421FFF79CFF2860002801D02D6805
:10C32000E9E70C23336016E00123201C5B42E38124
:10C330000233A38167662760A76067602761676132
:10C34000A7615C30391C0822FBF732FF201C6763B1
:10C35000A763A764E764F8BD3CD00100F7B5041CEF
:10C36000071C002601914834002C16D06368A5688C
:10C370000093009B013B00930DD4AB89012B08D99E
:10C380000E22AB5E013304D0381C291C019B984758
:10C3900006436835EDE72468E6E7301CFEBD000083
:10C3A000032370B5CC1C9C430834051C0C2C01D213
:10C3B0000C2405E0002C03DA0C2300202B6042E063
:10C3C0008C42F9D3204A1368101C191C002913D081
:10C3D0000A68121B0DD40B2A02D90A608B181FE0C1
:10C3E0008B4202D15A6802601BE04A685A600B1CFB
:10C3F00017E00B1C4968E9E7144E3368002B03D1A2
:10C40000281C00F0E3FA3060281C211C00F0DEFA42
:10C41000031C421CD0D00322C61C964386420AD17C
:10C420001C60181C07210B301A1D8843821A0AD081
:10C430005142995007E0311A281C00F0C7FA431CFA
:10C44000BAD0331CECE770BDB0280020AC28002027
:10C45000936810B5013B9360002B05DA9469A34201
:10C4600008DBCBB20A2B05D01368581C106019707A
:10C47000C8B201E000F008FB10BDF8B5061C0F1CA7
:10C48000141CD518AC4208D02178301C3A1CFFF798
:10C49000DFFF0134431CF5D100E00020F8BD0000AF
:10C4A000F0B59FB0061C0F1C02920593002804D023
:10C4B0008369002B01D1FFF7E1FE794B9F4201D147
:10C4C000776808E0774B9F4201D1B76803E0764B6D
:10C4D0009F4200D1F768BB891B070AD53B69002B37
:10C4E00007D0002306AD6B6120336B761033AB763B
:10C4F0003DE0301C391C00F033FB0028F1D0012056
:10C500004042CAE0059A111D12680591002A7EDB9F
:10C510000992013423782E2B00D189E021786348D9
:10C52000032200F0C5FC002808D0604B0134C01A7B
:10C5300040238340181C2B68184328602178631C13
:10C540005B4806220293297600F0B2FC002800D155
:10C5500091E0584B002B00D084E00722059B073365
:10C560009343083305936B69039A9B186B61029C94
:10C570002378002B04D1029BE31A049311D003E02B
:10C58000252BF8D00134F3E7049B301C391C029AA8
:10C59000FFF773FF431C7BD06A69049B9446634496
:10C5A0006B612378002B73D00122002352426A6012
:10C5B00002A95432521801342B60EB60AB60137047
:10C5C000AB6521783C48052200F072FC002809D0B8
:10C5D000394B0134C01A01238340181C2B681843BF
:10C5E0002860EEE72B68DA0604D55322202102A842
:10C5F000121811701A0704D553222B2102A8121801
:10C60000117022782A2A00D17CE7099B05E052426A
:10C61000EA60022213432B607BE72278303A092A32
:10C6200004D80A214B4301349B18F6E7099371E7BC
:10C6300063782A2B09D1059B02341A1D1B680592C9
:10C64000002B0DDA01235B420AE00023013422783B
:10C65000303A092A04D80A214B4301349B18F6E7E3
:10C6600007935BE705AB0093301C291C3A1C134B66
:10C6700000E000BF07E005AB0093301C291C3A1C0A
:10C680000E4B00F08BF80390039B013300D06AE758
:10C69000BB895B0600D532E70B981FB0F0BDC046E2
:10C6A00068D1010088D10100A8D10100CED10100DC
:10C6B000D2D1010000000000C8D101007BC40100FC
:10C6C000F7B5171C01930A698B6800900C1C934204
:10C6D00000DA131C221C3B6043321278002A01D07E
:10C6E00001333B6023689B0602D53B6802333B6005
:10C6F000062523681D401ED0231C43331B785A1E79
:10C700009341226892061CD53020E1184031C87050
:10C71000211C5A1C45310978A21840320233D170CD
:10C720000FE0221C0123009801991932089EB0479E
:10C73000431C0ED00135E3683A689B1A9D42F0DB3A
:10C74000DAE7221C009801994332089DA847431C50
:10C7500002D10120404220E006232068E1683A68C7
:10C7600003400025042B03D18D1AEB43DB171D403A
:10C77000A3682269934201DD9B1AED180027AF429E
:10C780000ADA221C0123009801991A32089EB04748
:10C79000431CDED00137F2E70020FEBDF0B58BB0C0
:10C7A00006920A1C43320793059004920A7E0C1CE1
:10C7B000109B6E2A00D1A8E011D8632A22D009D894
:10C7C000002A00D1B2E0582A00D0C2E045310A70F8
:10C7D0007C4A4FE0642A1DD0692A1BD0B9E0732A35
:10C7E00000D1A7E009D86F2A29D0702A00D0B0E084
:10C7F000202209680A43226037E0752A1FD0782A70
:10C8000033D0A6E00E1C1A684236111D1960136859
:10C810003370A1E021681A68080606D4490604D5D9
:10C82000111D19600023D55E02E0111D1960156805
:10C83000002D3BDA2D23049A6D42137036E02168F7
:10C840001A68080606D4490604D51568111D196032
:10C85000ADB202E0111D196015685A4B227E039398
:10C860000A276F2A1DD108271BE0221C7821453298
:10C870001170554A19680392081D226818600D68E6
:10C88000100602D4500600D5ADB2D30702D520233E
:10C890001A4322601027002D03D1202322689A43D7
:10C8A0002260231C002243331A7002E00A27454B02
:10C8B00003936368A360002B03DB04222168914388
:10C8C0002160002D02D1049E002B0ED0049E281C56
:10C8D000391CFFF759FC039B013E5B5C281C33703D
:10C8E000391CFFF7CBFB051EF1D1082F09D12368B6
:10C8F000DB0706D563682269934202DC3023013EE0
:10C900003370049B9B1B23612BE009681A6808069F
:10C9100007D4490605D5111D19601368A28A1A802B
:10C9200004E0111D1960136862691A600023049EF7
:10C93000236116E01A68111D196016680021301C69
:10C94000626800F0B5FA002801D0801B606063685F
:10C9500003E0261C42363270012323610023049A2F
:10C960001370079B05980093211C069B09AAFFF7EB
:10C97000A7FE431C02D10120404221E02369059813
:10C980000699321C079DA847431CF4D023689B07D7
:10C9900005D4099BE068984212DA181C10E00025C3
:10C9A000E368099A9B1A9D42F3DA221C0123059839
:10C9B00006991932079EB047431CDCD00135EFE7DA
:10C9C0000BB0F0BDD9D10100EAD1010038B5002388
:10C9D000064C051C081C236000F014FB431C03D10B
:10C9E0002368002B00D02B6038BDC046B82800203B
:10C9F00038B50C1C0E25495F00F0ACFA002803DBAB
:10CA0000636D1B18636503E0A289024B1340A38189
:10CA100038BDC046FFEFFFFFF8B51E1C8B89051C13
:10CA20000C1C171CDB0505D50E23C95E0022022352
:10CA300000F0D2F9A289054B281C1340A3813A1CAF
:10CA40000E23E15E331C00F077F8F8BDFFEFFFFF27
:10CA500038B50C1C0E25495F00F0BEF9A389421CB5
:10CA600003D1054A1340A38104E0802252011343FD
:10CA7000A381606538BDC046FFEFFFFF08B50E23F8
:10CA8000C95E00F0E1F808BD70B5051C0E1C141C51
:10CA9000002804D08369002B01D1FFF7EFFB234B63
:10CAA0009C4201D16C6808E0214B9C4201D1AC68EA
:10CAB00003E0204B9C4200D1EC68A369A360A389EA
:10CAC0001B070AD52369002B07D023682269F6B219
:10CAD000981A636998420FDB08E0281C211C00F0BB
:10CAE0003FF80028F1D0012040421DE0281C211C05
:10CAF00000F046F90028F6D1A3680130013BA3609D
:10CB000023685A1C22601E706369984205D0A3896D
:10CB1000301CDB0708D50A2E06D1281C211C00F08A
:10CB20002FF90028DFD1301C70BDC04668D101004C
:10CB300088D10100A8D1010038B5051C0020074CA0
:10CB40002060081C111C1A1CFCF766F9431C03D159
:10CB50002368002B00D02B6038BDC046B8280020C9
:10CB6000354B70B51D68061C0C1C002D05D0AB693B
:10CB7000002B02D1281CFFF781FB304B9C4201D1D6
:10CB80006C6808E02E4B9C4201D1AC6803E02D4B51
:10CB90009C4200D1EC68A3899AB2110723D4D10634
:10CBA00007D409220120326037321343A381404267
:10CBB00040E0530713D5616B002908D0231C443390
:10CBC000994202D0301C00F07FF9002363632422D5
:10CBD000A3899343A3810023636023692360082210
:10CBE000A3891343A3812369002B0BD1A023A2891E
:10CBF0009B00134080229200934203D0301C211CE2
:10CC000000F0FEF80123A289134005D00023A360A1
:10CC100063695B42A36103E0910700D46369A36089
:10CC200000202369834205D1130603D540231A430C
:10CC3000A281013870BDC0466020002068D101008B
:10CC400088D10100A8D1010038B50023064C051C8D
:10CC5000081C236000F0B6F9431C03D12368002BA5
:10CC600000D02B6038BDC046B8280020F7B58A89AF
:10CC7000051C0C1C13075ED44B68002B02DC0B6CEC
:10CC8000002B1ADDE76A002F17D000232E682B60D7
:10CC900080235B011A4001D0626D15E0281C216AD7
:10CCA0000123B847021C431C0ED12B68002B0BD06C
:10CCB0001D2B01D0162B02D12E6000205EE04021FA
:10CCC000A3890B43A38159E0A3895B0706D5636859
:10CCD000D21A636B002B01D0236CD21A0023281CBC
:10CCE000216AE76AB847A389421C06D12A68002A4C
:10CCF00003D01D2A01D0162A19D1002262602269B0
:10CD00002260DB0405D5431C02D12B68002B00D127
:10CD10006065616B2E600029CFD0231C443399429B
:10CD200002D0281C00F0D0F80020606326E04022EA
:10CD30001343A38122E00F69002FBED00B680F6060
:10CD4000DB1B01930023920700D14B69A360019B79
:10CD5000002BB2DD281C216A3A1C019BA66AB04751
:10CD6000002806DC40220120A38940421343A3810E
:10CD700004E0019B3F181B1A0193E8E7FEBD000089
:10CD800038B50B69051C0C1C002B01D100201CE0E0
:10CD9000002804D08369002B01D1FFF76FFA0B4BF9
:10CDA0009C4201D16C6808E0094B9C4201D1AC68FF
:10CDB00003E0084B9C4200D1EC680C22A35E002BE0
:10CDC000E4D0281C211CFFF751FF38BD68D10100B9
:10CDD00088D10100A8D1010038B5051C0020074CFE
:10CDE0002060081C111C1A1C00F004F9431C03D11C
:10CDF0002368002B00D02B6038BDC046B828002027
:10CE0000F0B58B8991B09B0706D50B1C47330B609F
:10CE10000B6101234B6145E00C1C0E23C95E061C0F
:10CE2000002904DA8023A5891D4010D10CE001AA55
:10CE300000F0A4F80028F5DBF023029D1B021D4042
:10CE4000194BED186B425D418027FF0001E0002582
:10CE50004027301C391CFFF7A3FA00280CD1A38906
:10CE60009A051FD402221343A381231C4733236056
:10CE700023610123636115E080220C4BB362A38917
:10CE800020601343A38120616761002D0AD00E2327
:10CE9000E15E301C00F084F8002803D00122A38951
:10CEA0001343A38111B0F0BD00E0FFFFF9C1010001
:10CEB000C9B28218904204D003788B4202D001306C
:10CEC000F8E700207047000030B500293ED0043953
:10CED0000B68002B00DAC9181D4A1368141C002BBC
:10CEE00002D14B60116031E099420DD208680A18F6
:10CEF0009A4203D11368C3180B6053684B602160DA
:10CF000024E08A4203D8131C5A68002AF9D11D680C
:10CF10005C198C420BD10968691858181960904245
:10CF200014D110685268091819605A600EE08C42DA
:10CF300002D90C23036009E008680C18944203D15D
:10CF400014685268001908604A60596030BDC046D4
:10CF5000B028002038B5051C0020074C2060081CB4
:10CF6000111C1A1CFBF766FF431C03D12368002B1E
:10CF700000D02B6038BDC046B828002038B500234B
:10CF8000064C051C081C111C236000F023F8431CF0
:10CF900003D12368002B00D02B6038BDB8280020B7
:10CFA00038B50023064C051C081C236000F01AF855
:10CFB000431C03D12368002B00D02B6038BDC04632
:10CFC000B828002058220120014B40421A607047C7
:10CFD000B828002058220120014B40421A607047B7
:10CFE000B82800205822024B00201A607047C04623
:10CFF000B828002058220120014B40421A60704797
:10D00000B8280020044A1368002B03D018181060B9
:10D01000181C7047014BF9E7B4280020C0280020F5
:10D02000F8B5C046F8BC08BC9E467047F8B5C04687
:10D03000F8BC08BC9E46704743000000002000205A
:10D040004C9C0100629C0100629C0100789B0100E5
:10D05000BC9B0100EA9C01002A9D0100DE9C0100AE
:10D060004C9B0100089B01004C9B0100089B0100A8
:10D07000389B01000C9C01000C9C01000C9C0100E1
:10D080000C9C01000C9C0100D49C0100EE9B010053
:10D09000B69C0100989C0100389B0100389B010060
:10D0A000549F0100709F0100709F0100F69F0100D6
:10D0B00028A00100AAA00100ECA001005EA00100D0
:10D0C000809E0100509E0100809E0100509E010044
:10D0D000BA9F0100AC9E0100AC9E0100AC9E010015
:10D0E000AC9E0100AC9E0100F69E0100149F010061
:10D0F000D09F010084A001003A9F01003A9F0100E7
:10D1000011000000120000001300000014000000D5
:10D11000110003001D9A0100120003001D9A010076
:10D12000130003001D9A0100140003001D9A010062
:10D130000B09080A0100000000509D004E6F726448
:10D1400069635F5541525400257300005374617246
:10D15000742E2E2E0A0000009ECADC240EE5A9E0E3
:10D1600093F3A3B50000406E000000000000000033
:10D1700000000000000000000000000000000000AF
:10D18000000000000000000000000000000000009F
:10D19000000000000000000000000000000000008F
:10D1A000000000000000000000000000000000007F
:10D1B000000000000000000000000000000000006F
:10D1C0000000000000000000232D302B2000686CC0
:10D1D0004C0065666745464700303132333435369A
:10D1E00037383941424344454600303132333435D3
:0CD1F00036373839616263646566000000
:08D1FC00C4AEFF7F010000003A
:10D204000000000068D1010088D10100A8D101000C
:10D21400000000000000000000000000000000000A
:10D2240038D00100000000000000000000000000F1
:10D2340000000000000000000000000000000000EA
:10D2440000000000000000000000000000000000DA
:10D2540000000000000000000000000000000000CA
:10D26400002000200100FFFF01000200FFFF00007A
:040000031000C02900
:00000001FF
